:1020A50012011002EF02010881179F0C04010102C1
:1020B5000301120009027200040100806409040092
:1020C5000001FF00000407058103080064080B01F7
:1020D50002020201050904010001020201050524AD
:1020E5000010010524010000042402020524060154
:1020F500020705820308004009040200020A0000E5
:10210500050705030240000007058302400000099A
:1021150004030002FF000006070504024000000753
:102125000584024000007200040309040400100342
:10213500740069006E0079004900530050001000DA
:102145001603550053004200740069006E007900C3
:1021550053005000490016001C03540069006E002E
:1021650079005300500049002000440057006900E1
:10217500720065001C001603430044004300200064
:10218500530065007200690061006C0016000E03C3
:102195005700650062007500730062000E000E03B3
:1021A50044006500710069006E0067000E00050FB0
:1021B5003900021810050038B60834A909A0478B64
:1021C500FDA0768815B665000111001C100500DF1D
:1021D50060DDD88945C74C9CD2659D9E648A9F0069
:1021E500000306B200120039000A000000000003D7
:1021F50006B200080001000000A800080002000364
:1022050000A0001400030057494E5553420000003A
:10221500000000000000008400040007002A0044BC
:10222500006500760069006300650049006E007472
:102235000065007200660061006300650047005597
:1022450000490044007300000050007B003900374E
:10225500003500460034003400440039002D0030BC
:10226500004400300038002D00340033004600449F
:10227500002D0038004200330045002D00310032AA
:102285000037004300410038004100460046004643
:0D22950000390044007D0000000000B20090
:1000B200750800750A00750B00750C00750D00754A
:0200C200130029
:1000D900C2CAC2CDC2CCC2C9D2CB43C94053C9F3EB
:1000E90043C904D2C875CC0075CD00C2CEC2AF00D9
:1000F900758301758254780079007A007B007C0051
:100109007D007F005393FDD2CAE5CDC394FE504FC5
:10011900E59030E1F4C2CEC2CF740F20CE0E30CFBD
:10012900FAC2CF1470F502016830CE19AACAABCB56
:10013900C2CEEAC39CF0EB9DA3F0A30FEF24C060ED
:100149001EEAFCEBFDA9CDA8CCE9B5CDF8E8C39C26
:10015900F5F0E99DFEE5F0C394E8EE94FD40CAEFA1
:1001690023F509D2AFC2CA9001D8E4F0A3F0A3F0F5
:10017900A3F074EE25094003020209E50924EEFF04
:10018900C3EF95095049EF2454FDE43401FE8D82F3
:100199008E83E0FDA3E0FE9001D8E0F514A3E0F51D
:1001A90015A3E0F516A3E0F5178D008E047D007EFA
:1001B900009001D8E82514F0EC3515A3F0ED3516BB
:1001C900A3F0EE3517A3F08F0674022EFF80B190CD
:1001D90001D8E0FCA3E0FDA3E0FEA3E0FF75390927
:1001E900E4F53AF53BF53C8C828D838EF0EF121FD6
:1001F90065AC82AD83AEF0FF9001D6ECF0EDA3F0D3
:100209007F00C3EF9509400122EF2454FDE4340136
:10021900FE7C008D828E838CF012204FF539A3125B
:10022900204FF53A900021C007C006C005C004124E
:100239001FE5753930753A00121EB9E5828583F0DC
:1002490024F8F582E5F034FFF583753906753A002F
:10025900121EB9AA82AB83D004D005D006D0078D6F
:10026900828E838CF0EA121FCAA3EB121FCA8F0673
:1002790074022EFF02020BC2CAC2CDC2CCC2C9C2CD
:10028900CB43C940C2C89001D6E0FEA3E0FFC3E456
:100299009EF5CAE49FF5CBD291439302C2AFC2CF78
:1002A900C2CED2CA75CC0075CDFF10CF0280FB7FBC
:1002B90000C3EF95094003020359EF2454F582E482
:1002C9003401F583E0FE10CF0280FBC29110CF020A
:1002D90080FBEE30E004D2918002C29110CF0280FF
:1002E900FBEE30E104D2918002C29110CF0280FB73
:1002F900EE30E204D2918002C29110CF0280FBEE6F
:1003090030E304D2918002C29110CF0280FBEE301B
:10031900E404D2918002C29110CF0280FBEE30E555
:1003290004D2918002C29110CF0280FBEE30E60424
:10033900D2918002C29110CF0280FBEE30E704D245
:10034900918002C29110CF0280FBD2910F0202BAB2
:100359005393FDD291D2AFC2CA22750900C2CAC253
:10036900CDC2CCC2C9C2CB43C940C2C89001D6E0F4
:10037900FEA3E0C313CE13CEFFC3E49EF5CAE49FE8
:10038900F5CB5393FDC2AFC2CFC2CED2CA75CC0052
:1003990075CD00C2CF7F0030910630CFFA020476C6
:1003A900C2CFC2CAE5CA240AF5CCE5CB3400F5CDE3
:1003B900C2CFD2CA10CF0280FB10CF0280FB10CF70
:1003C9000280FB30910343070110CF0280FB10CF5D
:1003D9000280FB30910343070210CF0280FB10CF4C
:1003E9000280FB30910343070410CF0280FB10CF3A
:1003F9000280FB30910343070810CF0280FB10CF26
:100409000280FB30910343071010CF0280FB10CF0D
:100419000280FB30910343072010CF0280FB10CFED
:100429000280FB30910343074010CF0280FB10CFBD
:100439000280FB30910343078010CF0280FBE5095E
:100449002454F582E43401F583EFF0E50904F50954
:1004590010CF0280FBC2CFC2CA74FFC395D6F5CCB8
:1004690074FF95D7F5CDC2CFD2CA02039ED2AF226F
:10047900900154E4F07509015393FDC2CAD2CBC26D
:10048900CFC2CED2AD22C2CAC2CDC2CCC2C9C2CBA2
:1004990043C940C2C89001D6E0FEA3E0FFC3E49E71
:1004A900F5CAE49FF5CB9001D6E0FEA3E0C313CED5
:1004B90013CEFF74AAC39EFEE49FFF9001D6E0FC11
:1004C900A3E0FDEEC39CF511EF9DF512D291439384
:1004D90002C2CFC2CE750E00751000D2CA75CC000B
:1004E90075CDFFD2AD22750900C2CAC2CDC2CCC238
:1004F900C953C9F3D2CB43C940C2C89001D6E0FE63
:10050900A3E0FFC3E49EF5CAE49FF5CB5393FD75C1
:100519000EFF751000C2CFC2CED2CA75CC0075CD00
:1005290000C2CFD2AD22750D0402048F750D1402DD
:10053900048F22750D0C02048F750D0802047910C1
:10054900CF03020614E50D20E2030205BEE50E7095
:100559003FD291E510B509215393FDC2AD530DFB6F
:10056900E50D7004750D8022E50D30E30302047971
:10057900E50D20E401220204EFE5102454F582E49C
:100589003401F583E0F50FE51004F510750E092225
:10059900E50E24F74017E50F30E004D2918002C23E
:1005A90091E50FC313F50FE50E14F50E22C291E57F
:1005B9000E14F50E22E50D20E40122A291E433FF89
:1005C90074FFB50E10C2CBC2AD530DEFE50D60013E
:1005D90022750D802274F8250E5006D2CB750EFFB8
:1005E90022E50FC313F50FEF6003430F807407B5BE
:1005F9000E13E5092454F582E43401F583E50FF07F
:10060900E50904F509E50E04F50E2210CE0122E5EF
:100619000D30E3149001547401F0530DF7E50D709A
:1006290003750D80C2CBC2ADE50D30E417C2CB75A1
:100639000E00C2CFC2CA8511CC8512CD750F00C27A
:10064900CFD2CA22C2AD22750B00E50A6008E4F5D3
:1006590039F53A0206F6900000E0FD30E75574F8E6
:10066900250950067C087D008004AC097D008C3981
:100679008D3A7D008D037C00C3EB9539EC953A509A
:10068900268D037C008D017A00A80B7F00E829F9EB
:10069900EF3AFAE92454F582EA3401F583E0FF8B55
:1006A900828C83F00D80CDE539FE250BF50B43389F
:1006B90002803A900002E0F50A900006E0F509E4AC
:1006C900F539F53AE50970057508148020E509241E
:1006D9007F500375098074F8250950067E087F004C
:1006E9008004AE097F008E398F3A433804853982F8
:1006F900853A8322E53830E151E509C3950BFFBFFF
:10070900080040067D087E0080048F057E007F007A
:10071900C3EF9D50268F047E008F027B00A80B79C2
:1007290000E82AFAE93BFBEA2454F582EB3401F5A7
:1007390083E0FB8C828E83F00F80D5ED250BF50BC2
:100749008DDDAEDC6306408EDC2275DD0075DC02D2
:1007590022E53830E25DE509C3950BFF24F7400532
:1007690075081480027F087E00C3EE9F50258E0411
:100779007D00AA0B7B00EA2CFCEB3DFDEC2454FC2C
:10078900ED3401FD8E82758300E0FB8C828D83F050
:100799000E80D6EF250BF50BC3E50B950950068F97
:1007A900067F0080047E007F008EDDAEDC6306805C
:1007B9008EDC2275DD0085DCDC22900273E0FF60AF
:1007C9000FBF0202800BBF0302801BBF043A802FB8
:1007D90022E50A600122750A21750912750814902B
:1007E90002737403F022E5087015750A047509018E
:1007F9009001547406F07508149002737404F0E5BE
:10080900087005900273E4F0221207C3E50C700327
:10081900020925E50C30E703020925E50C30E01F44
:10082900E5137007C291439302800F9003E8120900
:100839008574AE25135003530CFE051302091AE5FE
:100849000C30E117900154E09001D4F0900155E08B
:10085900FF9001D5F0530CFD02091AE50C30E27046
:10086900E50C30E318E50D700612053C02091AE59E
:100879000D30E20302091A530CF302091AE50C3090
:10088900E41AE50D700612053502091AE50D20E78F
:100899000302091A750D00530CEB8075E50C30E560
:1008A90019E50D700512052F8067E50D20E262122A
:1008B90000D9750D00530CDB8057E50D7005120545
:1008C9002F804EE50D30E749750D00530CFB804133
:1008D900E50C30E316E50D70051205428033E50D90
:1008E90030E72E750D00530CF78026E50C30E41621
:1008F900E50D70051205358018E50D30E713750D06
:1009090000530CEF800BE50C30E5061200D9530CAF
:10091900DFE50C543F600122750C8022AF08BF004F
:100929000122BF1441E50C30E71D750800750A0066
:10093900750C009001DCE053E0FDF09001DCE06013
:1009490003D2B322C2B322E4F513F50D747F550A1D
:10095900F50C9001DCE043E002F09001DCE060037B
:0A096900D2B322C2B32275080022A7
:0122B8000025
:1009730075A15575A1AA74F855B94406F5B975A1C1
:100983000022AE82AF83EE4F601505A105A105A13C
:1009930005A105A105A105A11EBEFF011F80E72238
:1009A300AE82AF83EE4F60159003E8C007C0061216
:1009B3000985D006D0071EBEFF011F80E722C29F14
:1009C300D29EC29DC2CDC2CC4387809001DD741AF2
:1009D300F07406A3F0E4A3F0A3F09001DDE0FCA320
:1009E300E0FDA3E0FEA3E0FF75390AE4F53AF53B29
:1009F300F53C8C828D838EF0EF121EE2AC82900167
:100A0300E1ECF09001DDE0FCA3E0FDA3E0FEA3E058
:100A1300FF75390AE4F53AF53BF53C8C828D838EFC
:100A2300F0EF121F65AC82AD83AEF0FF9001DDECF9
:100A3300F0EDA3F0EEA3F0EFA3F09001E1E0FFBF30
:100A4300050040219001DDE0FCA3E0FDA3E0FEA34F
:100A5300E0FF9001DD74012CF0E43DA3F0E43EA33C
:100A6300F0E43FA3F0740F55894420F58943C9A0EE
:100A73009001DDE0FCA3E0A3E0A3E0C3E49CF58DDB
:100A8300D28EC299D29CD2AC22A2AFE433FFC2AFC2
:100A9300539DF7E582C39294139294139294139205
:100AA3009413929413929413929413929413929492
:100AB300D39294EF6002D2AF22E582FFC4540FFEBB
:100AC30024F640088E0574302DFD800474372EFD06
:100AD3008D82C007120A8CD0078F0553050F7E0045
:100AE300C374099D74808EF063F08095F0400A8F83
:100AF30006740F5E2430FE8006740F5F2437FE8E6B
:100B030082020A8CAD82AE83AFF08D828E838FF02A
:100B130012204FFC60188C820DBD00010EC007C06F
:100B230006C005120A8CD005D006D00780DC22301F
:100B3300F711E493600CC082F582120A8CD082A371
:100B430080F02275824E120A8C758253020A8CAF92
:100B53008275A15575A1AAEF600543B101800353C6
:0D0B6300B1FE75A10075FF00228582FF2202
:04000000020059326F
:01000B0032C2
:0100130032BA
:01001B0032B2
:03002300020C07C5
:03002B00020C5E66
:01003300329A
:01003B003292
:03004300020BC8E5
:01004B003282
:03005300020C5349
:0300D600020056CF
:03005600020C9DFC
:100B700075E20053E27F43E22975E30053E2BF537D
:100B8000D1FB75D18043D1012243E10443E102430B
:100B9000E10143D81FD2EAD2AF2275EEC075EF0053
:100BA00075E4CA75E50075E6D475E70075EBC475A4
:100BB000D41275D61275D21275EC0075ED0075EA77
:100BC0004C75DE1275DC0222C020C0E0C0F0C0828D
:100BD000C083C007C006C005C004C003C002C00176
:100BE000C000C0D075D000121DCBD0D0D000D00135
:100BF000D002D003D004D005D006D007D083D08255
:100C0000D0F0D0E0D02032C020C0E0C0F0C082C020
:100C100083C007C006C005C004C003C002C001C035
:100C200000C0D075D0003098051213A4C298309936
:100C3000051213CDC299D0D0D000D001D002D0037C
:100C4000D004D005D006D007D083D082D0F0D0E039
:100C5000D0203210C002800010C102800032C020BB
:100C6000C0E0C0F0C082C083C007C006C005C00499
:100C7000C003C002C001C000C0D075D0001205483A
:100C8000D0D0D000D001D002D003D004D005D006FF
:100C9000D007D083D082D0F0D0E0D02032120973B8
:100CA0009000051209A31209C11211CE9022A2755B
:100CB000F080120B327F007E00902143E493FC749D
:100CC0000193FD8E027B00C3EA9CEB9D500BEE90DE
:100CD000213393FD2FFF0E80E07E0090215BE49393
:100CE000FC740193FD8E027B00C3EA9CEB9D500BCC
:100CF000EE90214593FD2FFF0E80E07E009021793C
:100D0000E493FC740193FD8E027B00C3EA9CEB9D8F
:100D1000500BEE90215D93FD2FFF0E80E07E009042
:100D20002191E493FC740193FD8E027B00C3EA9C45
:100D3000EB9D500BEE90217B93FD2FFF0E80E07E0C
:100D4000009021A1E493FC740193FD8E027B00C30B
:100D5000EA9CEB9D500BEE90219393FD2FFF0E80AC
:100D6000E07E009021B1E493FC740193FD8E027B40
:100D700000C3EA9CEB9D500BEE9021A393FD2FFF47
:100D80000E80E0BF6502800280FE120B70120B9A8B
:100D9000120B8975DD0075D30075D50075D7007508
:100DA000DF004397085396F7C2B39001DCE4F05399
:100DB000931F53921F75FC0075FA605393FD539275
:100DC000FDD2911211CAD2BD12081212165BE5357E
:070DD00060F61214C680F169
:0C22A2007374617274202E2E2E0D0A0041
:0300C40075210A99
:100DD700AD82AE83AFF0AA39AB3AAC3B79008D82D6
:100DE7008E838FF012204FF5F9A3AD82AE8330FBCF
:100DF700FD8A828B838CF0E5F9121FCAA3AA82AB06
:100E07008309B9040040D7229001E2E0FEA3E0FF86
:100E17009001E274012EF0E43FA3F0E52430E706E9
:100E2700EE2EFEEF33FF9001E6E524F0EE30E0080A
:100E37009001E6E04408FDF0EFC313FC7D0090014C
:100E4700E7ECF0EFC313CE13CE9001E8EEF075395F
:100E5700EA753A018D3B9001E675F000020DD77EE9
:100E6700007F00E53424F35003021059E534240BC6
:100E770083F582E534241183F583E4739DAAB6B61E
:100E8700B6BD0E3F7EA313A3130E0E0E0E0E0E0F4E
:100E97000F0F0F100F109000017421F07E087F00D4
:100EA700021059900000E4F07E017F000210597E85
:100EB700007F00021059900002E0F52174F525210A
:100EC700400BE521FD75F018A4F5FB800375FBFFCA
:100ED7009001DCE043E001F09001DCE06004D2B374
:100EE7008002C2B3900004E04393A0439302C291EF
:100EF7007E007F00900273E0FDBD01030210599050
:100F07000273E4F00210599001DCE053E0FEF09028
:100F170001DCE06004D2B38002C2B353931F539342
:100F2700FDD291900273E0FDBD0106900273740239
:100F3700F07E007F00021059900002E0FCA3E0FD64
:100F4700753900753A00753B0090000275F000C0D6
:100F570005C004120DD7D004D005BCAC13BD531087
:100F6700900002E0FDBD530280069002737401F009
:100F77007E047F00021059753900753A00753B00F1
:100F870090000275F000120DD7900002E0F5229054
:100F97000003E0F5237E007F00021059900004E073
:100FA700FCA3E0FD9001E2ECF0EDA3F07409B53489
:100FB7000575242080037524A0C3E5329408E53322
:100FC700940040067C087D008004AC32AD338C066B
:100FD7008D077D008D037C00C3EB9EEC9F5020C0E6
:100FE70007C006C005120E0FD005D006D0078D0327
:100FF7007C009001EDE0FA8B828C83F00D80D5E5C3
:1010070032C39EF532E5339FF5338046900004E006
:10101700FCA3E0FD9001E2ECF0EDA3F0900002E00C
:10102700FCA3E0FD9001E4ECF0EDA3F0740AB53405
:101037000575244080037524C0C3E5329408E53361
:10104700940040067C087D008004AC32AD338C06EA
:101057008D078E828F8322C3E5329408E53394008F
:1010670040067E087F008004AE32AF337D008D03DB
:101077007C00C3EB9EEC9F5020C007C006C0051242
:101087000E0FD005D006D0078D037C009001EDE050
:10109700FA8B828C83F00D80D5E532C39EF532E55D
:1010A700339FF5338EDDAEDC6306408EDC22C3E56D
:1010B700329408E533940040067E087F008004AE32
:1010C70032AF337D008D037C00C3EB9EEC9F400362
:1010D70002116F8D82758300E09001E9F0C007C0AF
:1010E70006C005120E0FD005D006D0079001E6E026
:1010F700FC6304609001E6ECF07B007C009001E467
:10110700E0F9A3E0FAC3EB99EC9A50587539EA7500
:101117003A01753B009001E675F000C007C006C0B4
:1011270005C004C003120DD7D003D004D005D006E4
:10113700D0079001EDE0FA9001E9E0F9EAB5010A7C
:10114700EAB522028004EAB5231AA921E4C423548C
:10115700E0C9C423C969C954E0C969FAE92BFBEAA4
:101167003CFC80990D0210CCE532C39EF532E53385
:101177009FF533E5324533600280047E007F008EA1
:09118700DDAEDC6306808EDC2283
:0C00C700783D7600783E7600783F7600A9
:1011900043C61022AF82E528B5270EE52920E009D5
:1011A0004329018F9975820122AE270E53063FEE27
:1011B000B5280475820022E527242EF582E4340246
:1011C000F583EFF08E277582012243C62022C2C725
:1011D000D2C5D2C475C2642210C00280FB85C18210
:1011E000228582C110C10280FB22AD82AE83AFF0A6
:1011F000E4F52AF52BF52CF52D8D828E838FF012D8
:10120000204FFC8C2A74012DFAE43EFB8F048A8265
:101210008B838CF012204FFA8A2B74022DFAE43E55
:10122000FB8F048A828B838CF012204FFA8A2C74F5
:10123000032DFDE43EFE8D828E838FF012204FFD44
:101240008D2D852A39852B3A852C3B852D3C90E3C5
:101250006075F016E4121F65AC82C3E49CF5C2D23F
:10126000EC22AD82AE83AFF0E4F52EF52FF530F52C
:10127000318D828E838FF012204FFC8C2E74012DC5
:10128000FAE43EFB8F048A828B838CF012204FFAA3
:101290008A2F74022DFAE43EFB8F048A828B838CA2
:1012A000F012204FFA8A3074032DFDE43EFE8D8249
:1012B0008E838FF012204FFD8D31852E39852F3A88
:1012C00085303B85313C901C0075F04E740E121F2A
:1012D00065AC82AD83AEF0FFEDC4CCC4540F6CCCD2
:1012E000540FCC6CCCFDEEC454F04DFDEFC4CEC415
:1012F000540F6ECE540FCE6ECEFF90026EECF0ED1A
:10130000A3F0EEA3F0EFA3F090026EE0FCA3E0FDEB
:10131000A3E0FEA3E0FF75390AE4F53AF53BF53C9E
:101320008C828D838EF0EF121EE2AC82900272EC02
:10133000F090026EE0FCA3E0FDA3E0FEA3E0FF75E9
:10134000390AE4F53AF53BF53C8C828D838EF0EF5B
:10135000121F65AC82AD83AEF0FF90026EECF0ED33
:10136000A3F0EEA3F0EFA3F0900272E0FFBF050040
:10137000402190026EE0FCA3E0FDA3E0FEA3E0FFAD
:1013800090026E74012CF0E43DA3F0E43EA3F0E47F
:101390003FA3F090026EE0FCA3E0A3E0A3E0C3E46F
:1013A0009CF58D22AE257F008E828F83A3753940F8
:1013B0008F3A12206BAE82EEB5260122E52524EE8F
:1013C000F582E43401F583E599F08E2522E5293094
:1013D000E02EE528B527045329FE22E528242EF522
:1013E00082E43402F583E0F599AE287F008E828F87
:1013F00083A37539408F3A12206BAE82AF838E285B
:1014000022752800752700752900752500752600AE
:1014100090027BE4F090027DF0783D7600783E7695
:1014200000227F0074F925DB50067D077E008004D2
:10143000ADDB7E008F037C00C3EB9DEC64808EF0FF
:1014400063F08095F05024EF2474FDE43402FEEF45
:101450002400FAE43400FB7C008A828B838CF01237
:10146000204FFA8D828E83F00F80B990027475F050
:1014700000021262C3E5329408E533940040067E10
:10148000087F008004AE32AF337D008D037C00C343
:10149000EB9EEC9F50188D037C00ED2474F582E4E4
:1014A0003402F583E0FA8B828C83F00D80DDE53227
:1014B000C39EF532E5339FF5338E828F83229000F1
:1014C00002783FE0F6229001DCE053E0FBF090016F
:1014D000DCE06004D2B38002C2B390027BE0603DE6
:1014E0009001DCE043E004F09001DCE06004D2B362
:1014F0008002C2B390027CE024D4F582E43400F58B
:1015000083E0F582121194E582601290027CE0047F
:10151000F090027BE014F0E0700353D6F390027D6C
:10152000E0603D9001DCE043E004F09001DCE0602D
:1015300004D2B38002C2B390027EE02440F582E47C
:101540003400F583E0F582121194E5826012900276
:101550007EE004F090027DE014F0E0700353DEF3CF
:10156000AF2574402FAE26C39EFF53073F7E00EF8A
:101570006007900280E02401F0783DE6706CEF6037
:1015800069EF24D84009900280E0FE249B505B90D4
:101590000280E4F07E00C3EE9F50328E047D007422
:1015A000402CFCE43DFDEC24D4FCED3400FDE526AC
:1015B00024EEF582E43401F583E0FB8C828D83F028
:1015C000AD260D53053F7C008D260E80C98FD75365
:1015D000D6FC783D76019001DCE043E004F0900118
:1015E000DCE06004D2B38002C2B3783EE6706BEFF9
:1015F0006068EF24D84009900280E0FE249B505A96
:10160000900280E4F07E00C3EE9F50328E047D0095
:1016100074402CFCE43DFDEC2440FCED3400FDE581
:101620002624EEF582E43401F583E0FB8C828D8381
:10163000F0AD260D53053F7C008D260E80C98FDF4F
:1016400053DEFC783E76019001DCE043E004F0904C
:1016500001DCE06003D2B322C2B32290027FE0FF3C
:10166000783FE6B5070122783F86055305017E00E5
:10167000BD0117BE0014EF20E010C2914393029009
:1016800003E81209855393FDD291783F90027FE6DB
:10169000F02275D70074FC55D64402F5D6783D7615
:1016A000002275DF0074FC55DE4402F5DEAEDE6319
:1016B00006408EDE783E76002230DE1990027BE511
:1016C000DBF090027CE4F090027BE0600874F3555C
:1016D000D64408F5D62230DE2290027DE5DBF0907C
:1016E000027EE4F090027DE0600874F355DE440869
:0C16F000F5DEAEDE7F006306808EDE2299
:0D22B90000E100000000080000000000002F
:0300D3007538007D
:1016FC00AFDBBF08028003021CAE900007E0FE7F48
:10170C0000900006E0FD7C004FF532EC4EF5337F87
:10171C0000900001E0F5348F38900000E0FE54603A
:10172C007003021898900000E0FE5306607D00BE26
:10173C002006BD0003021862BE4005BD00028003F6
:10174C00021893E4B5340280667401B53402805FEC
:10175C007402B5340280587403B534028051740499
:10176C00B53402804A7405B5340280437406B5342E
:10177C0002803C7407B5340280357408B53402809D
:10178C002E7409B534028027740AB5340280207493
:10179C000BB534028019740CB5340280127412B576
:1017AC003402801A743CB5340302184E02185D12D0
:1017BC000E66AD82AE838D07753801021CB09000A9
:1017CC0004E0FEBE0777900005E070717536EE758B
:1017DC0037219022A0E493FD7401937E00C3ED9514
:1017EC0032EE953350048D328E33C3E5329408E5D6
:1017FC0033940040067D087E008004AD32AE338DFC
:10180C00077E00C3EE9F50198E047D00EE2536F541
:10181C0082E43537F583E493FB8C828D83F00E8064
:10182C00E28F057E00E532C39DF532E5339EF5333C
:10183C00EF2536F536E43537F537021CB07FFF025D
:10184C001CB0753801120650AD82AE838D07021C98
:10185C00B07FFF021CB07420B53403021CB074219D
:10186C00B5340280077422B53418800C121474AD90
:10187C0082AE838D07021CB0C0071214BED00702C3
:10188C001CB07FFF021CB07FFF021CB0E53424F4B7
:10189C005003021CAAE534240B83F582E534241092
:1018AC0083F583E4738EAFAA6FAA80C9AA8DA6B004
:1018BC00B01C1A1C1B1C1A181C1A1A1C1C90000396
:1018CC00E0FEBE01028013BE02028023BE03028032
:1018DC0033BE0F030219EA021A147536A5753720A8
:1018EC009020B7E493FD740193FE8D07021A1675D0
:1018FC0036B975372090212BE493FD740193FE8D3E
:10190C0007021A16900002E0701575362D753721F6
:10191C00902131E493FD740193FE8D07021A169009
:10192C000002E0FEBE01157536A37537219021B17A
:10193C00E493FD740193FE8D07021A16900002E0E9
:10194C00FEBE021575364575372190215BE493FD7B
:10195C00740193FE8D07021A16900002E0FEBE037E
:10196C0015753633753721902143E493FD7401933B
:10197C00FE8D07021A16900002E0FEBE04147536A6
:10198C005D753721902179E493FD740193FE8D07E9
:10199C008078900002E0FEBE051475367B75372109
:1019AC00902191E493FD740193FE8D07805C90006F
:1019BC0002E0FEBE06147536937537219021A1E422
:1019CC0093FD740193FE8D07804075363375372176
:1019DC00902143E493FD740193FE8D07802C9000BD
:1019EC0002E07020900004E0701A900005E0701482
:1019FC007536B37537219021ECE493FD740193FE99
:101A0C008D0780067FFF80027FFFBFFF03021CB0A3
:101A1C008F057E00C3ED9532EE953350048D328EDA
:101A2C0033C3E5329408E533940040067D087E000C
:101A3C008004AD32AE338D077E00C3EE9F50198EFD
:101A4C00047D00EE2536F582E43537F583E493FB0F
:101A5C008C828D83F00E80E28F057E00E532C39D73
:101A6C00F532E5339EF533EF2536F536E43537F5AB
:101A7C0037021CB0900002E0FE8E32753300021C5F
:101A8C00B0900000E535F0C3E5329401E5339400E5
:101A9C005003021CB07F01021CB0900002E0F5352F
:101AAC00021CB0900000E0541F702F900003E0FD6A
:101ABC007E00900002E0FC7B004206EB4205BE017A
:101ACC0014BD00119020C0E493FE30E503021CB05D
:101ADC007FFF021CB07FFF021CB0900000E0FE53A1
:101AEC00061F7D00BE0277BD0074900004E0FEBEB0
:101AFC000102805FBE02028049BE03028033BE0435
:101B0C0002801DBE81028040BE8202802ABE8302FA
:101B1C008014BE844474BC55DE4402F5DE021CB055
:101B2C0053DE73021CB074BC55D64402F5D6021CAD
:101B3C00B053D673021CB074BC55D44402F5D40215
:101B4C001CB053D473021CB074BC55D24402F5D2F1
:101B5C00021CB053D273021CB07FFF021CB07FFF7B
:101B6C00021CB0900000E0541F703C900003E0FD9C
:101B7C007E00900002E0FC7B004206EB4205BE01B9
:101B8C0021BD001E9020C0E493FE30E5109022AEE3
:101B9C0075F080C007120B32D007021CB07FFF0219
:101BAC001CB07FFF021CB0900000E0FE53061F7DAE
:101BBC0000BE0205BD00028003021C8A900003E0F7
:101BCC00FD7E00900002E0FC7B004206EB4205EE3D
:101BDC004D6003021C86900005E0FD7E0090000421
:101BEC00E0FC7B004206EB4205BE0106BD00030291
:101BFC001C7ABE0205BD00028060BE0305BD00025A
:101C0C008044BE0405BD00028028BE8105BD0002D3
:101C1C008052BE8205BD00028036BE8305BD000227
:101C2C00801ABE8451BD004E74BF55DE4403F5DEF0
:101C3C008072747F55DE440CF5DE806874BF55D617
:101C4C004403F5D6805E747F55D6440CF5D680548B
:101C5C0074BF55D44403F5D4804A747F55D4440CD6
:101C6C00F5D4804074BF55D24403F5D28036747FCE
:101C7C0055D2440CF5D27FFF802A7FFF80267FFF50
:101C8C008022900000E4F0900001F0C3E532940251
:101C9C00E533940040047F02800AAF3280067FFF58
:101CAC0080027FFFBFFF077534FF75DCCF22EF2466
:101CBC00F740068FDD75DCC02275DD0075DCC022B7
:101CCC00E53830E0227409B53402800E740BB5345B
:101CDC00028007743CB53408800302105E0206FDD6
:101CEC0075DD0075DC02227405B53402806474065F
:101CFC00B5340280057412B53466C3E5329408E538
:101D0C0033940040067E087F008004AE32AF337FF0
:101D1C0000C3EF9E50198F047D00EF2536F582E449
:101D2C003537F583E493FB8C828D83F00F80E28E44
:101D3C00057F00E532C39DF532E5339FF533EE2583
:101D4C0036F536E43537F5378EDDAEDC6306408E7E
:101D5C00DC22E5E35480FFE5324FF5E375DC02222B
:101D6C0075DD0075DC0222E53830E022740AB534EA
:101D7C0002800E740CB534028007743CB5340880B4
:101D8C00030210B502075A75DD0085DCDC227420D5
:101D9C00B5340D30DE1012142275DD0085DCDC222A
:101DAC0075DD0043DC022275D30074FC55D244026D
:101DBC00F5D22275D50074FC55D44402F5D42220FA
:101DCC00D903021E8EE5D9540FFFADD95305307ED1
:101DDC0000BD0005BE0002801CBD1005BE000280C7
:101DEC0044BD2005BE00028051BD3006BE0003027A
:101DFC001E74021E8CEF24FB5003021E8CEF2F2F3F
:101E0C00901E1073021E1F021E8C021E8C021E25B9
:101E1C00021E2B121D73021E8C1216B9021E8C127E
:101E2C0016D6021E8CEF24FB4056EF2F901E3C73EF
:101E3C00804E804C804A80488046EF24FB4041EF26
:101E4C002F901E51738008800B800E80118014120D
:101E5C001CCC802C121DB38027121DBF80221216A1
:101E6C0092801D1216A28018EF24FB4013EF2F90C6
:101E7C001E7F73800880098007800580031216FC82
:101E8C00C2D930D81B75DC0275D21275D41275D636
:101E9C001275DE0275E300C2DAC2D9C2D81214017F
:0D1EAC0010DA0122E5DA20E20375D8FF22EA
:0A22AE0073757370656E640D0A000D
:101EB9007A10E4FBFCE58225E0F582E58333F583BE
:101EC900EB33FBEC33FCEB9539F5F0EC953A400636
:101ED900FCABF0438201DADD22F9E539453A453BAD
:101EE900453C60777800C308E53C20E73BE53925A8
:101EF900E0F539E53A33F53AE53B33F53BE53C3373
:101F0900F53CE5829539E583953AE5F0953BE99508
:101F19003C50D4C3E53C13F53CE53B13F53BE53AAE
:101F290013F53AE53913F539E5829539FCE58395D9
:101F39003AFDE5F0953BFEE9953C4007F98EF08DB9
:101F4900838C82C3E53C13F53CE53B13F53BE53A4D
:101F590013F53AE53913F539D8CEE922FB7A20E4AD
:101F6900FCFDFEFFE5822582F582E58333F583E5F5
:101F7900F033F5F0EB33FB4017DAE98042E58225CF
:101F890082F582E58333F583E5F033F5F0EB33FB36
:101F9900EC33FCED33FDEE33FEEF33FFEC9539ED19
:101FA900953AEE953BEF953C4013EC9539FCED9550
:101FB9003AFDEE953BFEEF953CFF438201DABEEB1D
:011FC90022F5
:06008800E478FFF6D8FD4C
:10006600790EE94400601B7A019022B8787375A076
:1000760002E493F2A308B8000205A0D9F4DAF275F7
:02008600A0FFD9
:101FCA0020F71130F6138883A88220F509F6A88332
:101FDA007583002280FEF280F5F022E5828539F0D1
:101FEA00A4C582C0F0853AF0A4D0F025F0C5838557
:101FFA0039F0A42583F58322E539453A60467A010A
:10200A00E53925E0F539E53A334012F53AE58295A6
:10201A0039E583953A40030A80E6C3E53A13F53A6F
:10202A00E53913F539C3E5829539F5F0E583953A33
:10203A004005F58385F082C3E53A13F53AE539138D
:05204A00F539DAE12286
:10008E007800E84400600A795475A001E4F309D8B9
:10009E00FC781FE84401600C7902900154E4F0A34F
:0400AE00D8FCD9FAA7
:0D00590075813F1220A1E582600302005670
:10204F0020F71430F6148883A88220F507E6A883BA
:10205F0075830022E280F7E49322E022C2D5E58364
:10206F0030E70DD2D5E4C39582F582E49583F583ED
:10207F00E53A30E70BE4C39539F539E4953AF53A8B
:10208F0012200230D50BE4C39582F582E49583F5D7
:06209F008322758200227D
:00000001FF
