:0600000002006B021979F9
:03000B00021A8254
:030013000219CC03
:01001B0032B2
:030023000218E1DF
:03002B000200F4DC
:01003300329A
:03003B00021A1F87
:030043000218A2FE
:01004B003282
:0300530002192D62
:01005B003272
:03006300021F5F1A
:03006600021A7308
:02006900E4733E
:0D006B0075813E1221FAE5826003020066F5
:100078007922E94400601B7A019022E578F075A0A6
:1000880001E493F2A308B8000205A0D9F4DAF275E6
:02009800A0FFC7
:06009A00E478FFF6D8FD3A
:1000A0007800E84400600A790A75A001E4F309D8F1
:1000B000FC78E6E84400600C790190010AE4F0A3C2
:0400C000D8FCD9FA95
:0300C400751500AF
:1000C80075230075250075260075270075280075AD
:0200D8002E00F8
:0300DA0075160A8E
:0E00DE007808E4F608F608F608F6780C7600C6
:0200EC00C20848
:0200EE00C20945
:0300F000020066A5
:1000F400C022C0E0C0F0C082C083C007C006C005F3
:10010400C004C003C002C001C000C0D075D000123A
:100114001027D0D0D000D001D002D003D004D00515
:10012400D006D007D083D082D0F0D0E0D0223212D3
:10013400045C902580E4F5F0121C674397085396FD
:10014400F7C2B3900198E4F053931F53921F75FCC8
:100154000075FA005393FD5392FDD291D2BD221241
:1001640012F19001F6E0FF900201E0FEEFB5060205
:10017400802C900201E0FE5306017D00BE0117BDF4
:100184000014EF20E010C2914393029003E8121B85
:10019400F05393FDD291900201E09001F6F0120326
:1001A400F9E5826006120400121D3C121DCFE5829F
:1001B4006009121DE51202B21202939001F7E0FCED
:1001C400A3E0FDA3E0FEA3E0FF9001F2E0F8A3E0CA
:1001D400F9A3E0FAA3E0FBE8B5040DE9B50509EAE3
:1001E400B50605EBB50701229001F2ECF0EDA3F0A2
:1001F400EEA3F0EFA3F08C828D838EF0EF021C67E8
:100204009001FEE4F0900200F0227F00C3E5DB944D
:1002140007920040067D077E008004ADDB7E008FE0
:10022400037C00C3EB9DEC64808EF063F08095F05A
:100234005017EF24F7FDE43401FE8F82758300E04C
:10024400FC8D828E83F00F80C3227F008F057E0099
:10025400C3ED9407EE940050188F057E00EF24F749
:10026400F582E43401F583E0FC8D828E83F00F8007
:10027400DB90000722900002E0900201F0E022757A
:100284001D00900201E06003751D01851D8222900E
:100294000200E07018900202E0FFE060108FD75374
:1002A400D6FC9002007401F0900202E4F022AF82C6
:1002B400900201E060617D007E00900200E0602415
:1002C4000DBD00010E900005C007C006C005121B3D
:1002D400F0D005D006D007C3ED9450EE94C340DAB5
:1002E40075820022900202E0FEBE400050207D0094
:1002F40074402EFEE43DFDEE2454F582ED3400F509
:1003040083EFF0900202E02401F075820122C0071D
:10031400120293D007809F75820022AFF0AE83E56E
:100324008290010CF0EEA3F0EFA3F0900201E070D4
:10033400030203F590010AE0FEA3E0FFC3E49E7408
:10034400808FF063F08095F040030203F57E007F18
:1003540000900200E060200EBE00010F900005C076
:1003640007C006121BF0D006D007C3EE9450EF94DA
:10037400C340DE7582002290010CE0FDA3E0FEA3E1
:10038400E0FF90010AE0FBA3E0FCC3E49B74808CD3
:10039400F063F08095F0509C900202E0FABA4000BD
:1003A40050498A017A00744029F9E43AFAE924545C
:1003B400F9EA3400FA8D828E838FF0122063F8A359
:1003C400AD82AE8390010CEDF0EEA3F0EFA3F089C3
:1003D400828A83E8F0900202E02401F01BBBFF0153
:1003E4001C90010AEBF0ECA3F0809F12029302032D
:1003F40038758200229001FEE0F582229001FEE031
:100404007003F582229001FFE02454F582E4340065
:10041400F583E0FF9001FFE004F09001FEE014F0AA
:10042400E0700353D6F38F822275D70074FC55D63F
:100434004402F5D6900200E4F02230DE199001FE69
:10044400E5DBF09001FFE4F09001FEE0600874F356
:0704540055D64408F5D6223D
:10045C00120B3B120B65120B5475DD0075D3007536
:06046C00D50075D7002247
:10047200AFDBBF08028003020947900007E0FE7F5E
:1004820000900006E0FD7C004FF510EC4EF5117F68
:1004920000900001E0F5128F15900000E0FE54601C
:1004A200700302057F900000E0FE5306607D00BEEF
:1004B2002006BD0003020549BE4005BD00028003BF
:1004C20002057AE4B51202805B7401B5120280540F
:1004D2007402B51202804D7403B512028046740490
:1004E200B51202803F7405B5120280387406B51247
:1004F2000280317407B51202802A7408B512028094
:10050200237409B51202801C740AB5120280157494
:100512000BB51202800E740CB512028007743CB542
:100522001220800F121514AD82AE838D077515014E
:1005320002094975150112112FAD82AE838D070292
:1005420009497FFF0209497420B51203020949745F
:1005520021B5120280077422B51218800C12024EC5
:10056200AD82AE838D07020949C007120279D00716
:100572000209497FFF0209497FFF020949E5122466
:10058200F45003020943E512240B83F582E5122499
:100592001083F583E47325534313431DB0432A4765
:1005A20049490907090809070509070709099000C8
:1005B20003E0FEBE0102800DBE0202801DBE0302E8
:1005C200802D0206AD7513FE751421902210E4935E
:1005D200FD740193FE8D070206AF75131275142286
:1005E20090226DE493FD740193FE8D070206AF9095
:1005F2000002E0701575136F751422902273E49354
:10060200FD740193FE8D070206AF900002E0FEBE6C
:1006120001157513D57514229022E3E493FD74013C
:1006220093FE8D070206AF900002E0FEBE02147533
:10063200138775142290229DE493FD740193FE8D1D
:1006420007806A900002E0FEBE03147513757514EC
:1006520022902285E493FD740193FE8D07804E90D3
:100662000002E0FEBE041475139F7514229022BB93
:10067200E493FD740193FE8D078032900002E0FE48
:10068200BE05147513BD7514229022D3E493FD7434
:100692000193FE8D078016751375751422902285BD
:1006A200E493FD740193FE8D0780027FFFBFFF0379
:1006B2000209498F057E00C3ED9510EE9511500495
:1006C2008D108E11AD10AE11C3ED9408EE94009210
:1006D2000140067B087C008004AB10AC118B077CC8
:1006E20000C3EC9F50198C027B00EC2513F582E4C9
:1006F2003514F583E493F98A828B83F00C80E28FC0
:10070200037C00EDC39BFDEE9CFE8D108E11EF2548
:1007120013F513E43514F514020949900002E0FEC2
:100722008E1075110002094990010FE0900000F04F
:10073200AD10AE11C3ED9401EE94005003020949CD
:100742007F01020949900002E0FE90010FF00209C8
:1007520049900000E0541F702F900003E0FD7E00DE
:10076200900002E0FC7B004206EB4205BE0114BD94
:100772000011902219E493FE30E5030209497FFF3C
:100782000209497FFF020949900000E0FE53061F5B
:100792007D00BE0277BD0074900004E0FEBE01023F
:1007A200805FBE02028049BE03028033BE04028023
:1007B2001DBE81028040BE8202802ABE8302801456
:1007C200BE844474BC55DE4402F5DE02094953DEA0
:1007D2007302094974BC55D64402F5D6020949533D
:1007E200D67302094974BC55D44402F5D4020949AE
:1007F20053D47302094974BC55D24402F5D202099A
:100802004953D2730209497FFF0209497FFF020956
:1008120049900000E0541F702F900003E0FD7E001D
:10082200900002E0FC7B004206EB4205BE0114BDD3
:100832000011902219E493FE30E5030209497FFF7B
:100842000209497FFF020949900000E0FE53061F9A
:100852007D00BE0205BD0002800302092190000353
:10086200E0FD7E00900002E0FC7B004206EB4205C8
:10087200EE4D600302091D900005E0FD7E00900030
:1008820004E0FC7B004206EB4205BE0106BD00030C
:10089200020911BE0205BD00028060BE0305BD0053
:1008A200028044BE0405BD00028028BE8105BD0051
:1008B200028052BE8205BD00028036BE8305BD00A5
:1008C20002801ABE8451BD004E74BF55DE4403F54A
:1008D200DE8074747F55DE440CF5DE806A74BF5589
:1008E200D64403F5D68060747F55D6440CF5D68085
:1008F2005674BF55D44403F5D4804C747F55D44408
:100902000CF5D4804274BF55D24403F5D2803874BA
:100912007F55D2440CF5D27FFF802C7FFF80287F49
:10092200FF8024900000E4F0900001F0AD10AE11C1
:10093200C3ED9402EE940040047F02800AAF10805F
:10094200067FFF80027FFFBFFF077512FF75DCCFB6
:1009520022EF24F740068FDD75DCC02275DD0075BD
:10096200DCC022E51530E0227409B51202800E7453
:100972000BB512028007743CB512088003021722DD
:100982000211E275DD0075DC02227405B5120280E7
:100992005D7406B51266AE10AF11C3EE9408EF9403
:1009A20000920240067C087D008004AC10AD117DEF
:1009B20000C3ED9C50198D027B00ED2513F582E4F6
:1009C2003514F583E493F98A828B83F00D80E28CEF
:1009D200037D00EEC39BFEEF9DFF8E108F11EC2571
:1009E20013F513E43514F5148CDD63DC4022E5E3E2
:1009F2005480FFE5104FF5E375DC022275DD0075CA
:100A0200DC0222E51530E022740AB51202800E746F
:100A12000CB512028007743CB512088003021779E4
:100A220002123D75DD0085DCDC227420B5120D302A
:100A3200DE1012020E75DD0085DCDC2275DD00435E
:100A4200DC022275D30074FC55D24402F5D2227521
:100A5200D50074FC55D44402F5D42220D903020BEC
:100A62000EE5D9540FFFADD95305307E00BD000508
:100A7200BE0002801CBD1005BE00028037BD2005ED
:100A8200BE00028044BD3006BE0003020AF4020B1F
:100A92000CEF24FB5003020B0CEF2F900AA1738082
:100AA200088067806580088061120A05020B0C12BB
:100AB200043E8056EF24FB4051EF2F900AC1738011
:100AC200498047804580438041EF24FB403CEF2F23
:100AD200900AD6738008800B800E8011802C120938
:100AE200658027120A458022120A51801D12042DA8
:100AF2008018EF24FB4013EF2F900AFF73800880C9
:100B020009800780058003120472C2D930D81D758E
:100B1200DC0275D21275D41275D61275E300C2DAF0
:100B2200C2D9C2D890010FE4F012020410DA0122F5
:100B3200E5DA20E20375D8FF2275E20053E27F4333
:100B4200E22975E30053E2BF53D1FB75D18043D153
:100B5200012243E10443E10243E10143D81FD2EA07
:100B6200D2AF227E407F008EEE8FEF7E4A7F008ED4
:100B7200E48FE57E547F008EE68FE775EBC475D275
:100B82001275D41275D6127E007F008EEC8FED7531
:060B9200EA4075DC0222BE
:100B9800C2CAC2CDC2CCC2C9D2CB43C94053C9F321
:100BA80043C904D2C875CC0075CD00C2CEC2AF000F
:100BB800758301758210780079007A007B007C00CB
:100BC8007D007F005393FDD2CAE5CDC394FE504FFC
:100BD800E59030E1F4C2CEC2CF740F20CE0E30CFF4
:100BE800FAC2CF1470F5020C2730CE19AACAABCBC3
:100BF800C2CEEAC39CF0EB9DA3F0A30FEF24C06024
:100C08001EEAFCEBFDA9CDA8CCE9B5CDF8E8C39C5C
:100C1800F5F0E99DFEE5F0C394E8EE94FD40CAEFD7
:100C280023F524D2AFC2CA900194E4F0A3F0A3F054
:100C3800A3F074EE25244003020CCFE52424EEFF34
:100C4800C3EF95245049EF2410FDE43401FE8D8252
:100C58008E83E0FDA3E0FE900194E0F52FA3E0F57C
:100C680030A3E0F531A3E0F5328D008E047D007EDF
:100C780000900194E8252FF0EC3530A3F0ED3531E4
:100C8800A3F0EE3532A3F08F0674022EFF80B190E8
:100C98000194E0FCA3E0FDA3E0FEA3E0FF7409C01B
:100CA800E0E4C0E0C0E0C0E08C828D838EF0EF12FB
:100CB8001F61AC82AD83AEF0FFE58124FCF5819025
:100CC8000192ECF0EDA3F07F00C3EF9524400122E0
:100CD800EF2410FDE43401FE7C008D828E838CF0BD
:100CE800122063FAA3122063FBC007C006C005C028
:100CF80004C002C003900021121E33AA82AB8315E0
:100D08008115817430C0E0E4C0E08A828B831218B8
:100D180056AA82AB8315811581EA24F8FAEB34FFD1
:100D2800FB7406C0E0E4C0E08A828B83121856AADE
:100D380082AB8315811581D004D005D006D0078DEC
:100D4800828E838CF0EA121E18A3EB121E188F06EF
:100D580074022EFF020CD1C2CAC2CDC2CCC2C9C213
:100D6800CB43C940C2C8900192E0FEA3E0FFC3E4B0
:100D78009EF5CAE49FF5CBD291439302C2AFC2CF8E
:100D8800C2CED2CA75CC0075CDFF10CF0280FB7FD2
:100D980000C3EF95244003020E38EF2410F582E4D7
:100DA8003401F583E0FE10CF0280FBC29110CF0220
:100DB80080FBEE30E004D2918002C29110CF028015
:100DC800FBEE30E104D2918002C29110CF0280FB89
:100DD800EE30E204D2918002C29110CF0280FBEE85
:100DE80030E304D2918002C29110CF0280FBEE3032
:100DF800E404D2918002C29110CF0280FBEE30E56C
:100E080004D2918002C29110CF0280FBEE30E6043A
:100E1800D2918002C29110CF0280FBEE30E704D25B
:100E2800918002C29110CF0280FBD2910F020D99DE
:100E38005393FDD291D2AFC2CA22752400C2CAC24E
:100E4800CDC2CCC2C9C2CB43C940C2C8900192E04E
:100E5800FEA3E0C313CE13CEFFC3E49EF5CAE49FFE
:100E6800F5CB5393FDC2AFC2CFC2CED2CA75CC0068
:100E780075CD00C2CF7F0030910630CFFA020F55F2
:100E8800C2CFC2CAE5CA240AF5CCE5CB3400F5CDF9
:100E9800C2CFD2CA10CF0280FB10CF0280FB10CF86
:100EA8000280FB30910343070110CF0280FB10CF73
:100EB8000280FB30910343070210CF0280FB10CF62
:100EC8000280FB30910343070410CF0280FB10CF50
:100ED8000280FB30910343070810CF0280FB10CF3C
:100EE8000280FB30910343071010CF0280FB10CF24
:100EF8000280FB30910343072010CF0280FB10CF04
:100F08000280FB30910343074010CF0280FB10CFD3
:100F18000280FB30910343078010CF0280FBE52459
:100F28002410F582E43401F583EFF0E52404F52478
:100F380010CF0280FBC2CFC2CA74FFC39592F5CC12
:100F480074FF9593F5CDC2CFD2CA020E7DD2AF22DF
:100F5800900110E4F07524015393FDC2CAD2CBC2AC
:100F6800CFC2CED2AD22C2CAC2CDC2CCC2C9C2CBB8
:100F780043C940C2C8900192E0FEA3E0FFC3E49ECB
:100F8800F5CAE49FF5CB900192E0FEA3E0C313CE2F
:100F980013CEFF74AAC39EFEE49FFF900192E0FC6B
:100FA800A3E0FDEEC39CF52CEF9DF52DD291439364
:100FB80002C2CFC2CE752900752B00D2CA75CC00EB
:100FC80075CDFFD2AD22752400C2CAC2CDC2CCC233
:100FD800C953C9F3D2CB43C940C2C8900192E0FEBD
:100FE800A3E0FFC3E49EF5CAE49FF5CB5393FD75D8
:100FF80029FF752B00C2CFC2CED2CA75CC0075CDE1
:1010080000C2CFD2AD22752804020F6E75281402D3
:101018000F6E2275280C020F6E752808020F5810E3
:10102800CF030210F3E52820E20302109DE52970A2
:101038003FD291E52BB524215393FDC2AD5328FB34
:10104800E528700475288022E52830E303020F584C
:10105800E52820E40122020FCEE52B2410F582E4D6
:101068003401F583E0F52AE52B04F52B75290922CF
:10107800E52924F74017E52A30E004D2918002C21E
:1010880091E52AC313F52AE52914F52922C291E529
:101098002914F52922E52820E40122A291E433FF4E
:1010A80074FFB52910C2CBC2AD5328EFE528600103
:1010B800227528802274F825295006D2CB7529FF7D
:1010C80022E52AC313F52AEF6003432A807407B583
:1010D8002913E5242410F582E43401F583E52AF088
:1010E800E52404F524E52904F5292210CE0122E59A
:1010F8002830E3149001107401F05328F7E52870A4
:1011080003752880C2CBC2ADE52830E417C2CB7581
:101118002900C2CFC2CA852CCC852DCD752A00C224
:10112800CFD2CA22C2AD22752600E5256008E4F5B3
:101138001DF51E0211DB900000E0FD30E758C3E505
:10114800249408920340067C087D008004AC247D2A
:10115800008C1D8D1E7D008D037C00C3EB951DEC5E
:10116800951E50268D037C008D017A00A8267F00ED
:10117800E829F9EF3AFAE92410F582EA3401F5830F
:10118800E0FF8B828C83F00D80CDE51DFE2526F5D2
:1011980026431502803D900002E0F525900006E008
:1011A800F524E4F51DF51EE5247005752314802348
:1011B800E524247F5003752480C3E5249408920312
:1011C80040067E087F008004AE247F008E1D8F1E9F
:1011D800431504851D82851E8322E51530E14FE500
:1011E80024C39526FFBF0800920440067D087E00B0
:1011F80080048F057E007F00C3EF9D50268F047EFC
:10120800008F027B00A8267900E82AFAE93BFBEA6E
:101218002410F582EB3401F583E0FB8C828E83F099
:101228000F80D5ED2526F5268DDD63DC402275DDA2
:101238000075DC0222E51530E259E524C39526FF46
:1012480024F7400575231480027F087E00C3EE9FB3
:1012580050258E047D00AA267B00EA2CFCEB3DFD80
:10126800EC2410FCED3401FD8E82758300E0FB8CCC
:10127800828D83F00E80D6EF2526F526C3E52695C8
:101288002450068F067F0080047E007F008EDD6379
:10129800DC802275DD0085DCDC22900203E0FF6043
:1012A8000FBF0202800BBF0302801BBF043A802FCE
:1012B80022E52560012275252175241275231490D5
:1012C80002037403F022E5237015752504752401C3
:1012D8009001107406F07523149002037404F0E56D
:1012E800237005900203E4F0221212A2E52770038E
:1012F800021404E52730E703021404E52730E01F51
:10130800E52E7007C291439302800F9003E8121BE9
:10131800F0749C252E50035327FE052E0213F9E581
:101328002730E117900110E0900190F0900111E052
:10133800FF900191F05327FD0213F9E52730E27081
:10134800E52730E318E528700612101B0213F9E5AB
:101358002830E2030213F95327F30213F9E5273083
:10136800E41AE52870061210140213F9E52820E79C
:10137800030213F97528005327EB8075E52730E53C
:1013880019E528700512100E8067E52820E2621220
:101398000B987528005327DB8057E5287005121035
:1013A8000E804EE52830E7497528005327FB804119
:1013B800E52730E316E52870051210218033E5286B
:1013C80030E72E7528005327F78026E52730E416E6
:1013D800E52870051210148018E52830E7137528E1
:1013E800005327EF800BE52730E506120B985327AB
:1013F800DFE527543F60012275278022AF23BF0015
:101408000122BF1441E52730E71D7523007525002B
:10141800752700900198E053E0FDF0900198E06096
:1014280003D2B322C2B322E4F52EF528747F5525E2
:10143800F527900198E043E002F0900198E06003FE
:0A144800D2B322C2B32275230022A2
:10145200AFF0AE83E5829001A8F0EEA3F0EFA3F027
:101462009001A5E0FDA3E0FEA3E0FF7C009001A8AF
:10147200E0F9A3E0FAA3E0FB89828A838BF01220D1
:1014820063F5F9A3A982AA839001A8E9F0EAA3F07F
:10149200EBA3F030FBFD8D828E838FF0E5F9121EF7
:1014A20018A3AD82AE830CBC040040CC9001A8E925
:1014B200F0EAA3F0EBA3F022900199E0FEA3E0FF93
:1014C20090019974012EF0E43FA3F0E51930E7068C
:1014D200EE2EFEEF33FF90019DE519F0EE30E008AD
:1014E20090019DE04408FDF0EFC313FC90019EECD7
:1014F200F0EFC313CE13CE90019FEEF09001A574CE
:10150200A1F07401A3F0E4A3F090019D75F0000234
:1015120014527E007F00E51224F3500302171DE5EA
:1015220012240B83F582E512241183F583E4734BB5
:10153200586464646BBFF3365FD35FD3151515151A
:101542001515151516161616169000017421F07E43
:10155200087F0002171D900000E4F07E017F000268
:10156200171D7E007F0002171D900002E0F5167421
:10157200F52516400BE516FD75F018A4F5FB800362
:1015820075FBFF900198E043E001F0900198E06064
:1015920004D2B38002C2B3900004E04393A075FA70
:1015A20060439302C2917E007F00900203E0FDBD82
:1015B200010302171D900203E4F002171D90019827
:1015C200E053E0FEF0900198E06004D2B38002C2E2
:1015D200B353931F75FA005393FDD291900203E027
:1015E200FDBD01069002037402F07E007F00021727
:1015F2001D900002E0FCA3E0FD9001A57400F074D0
:1016020000A3F0E4A3F090000275F000C005C0044E
:10161200121452D004D005BCAC13BD53109000027A
:10162200E0FDBD530280069002037401F07E047F48
:101632000002171D9001A57400F07400A3F0E4A34A
:10164200F090000275F000121452900002E0F517BB
:10165200900003E0F5187E007F0002171D90000441
:10166200E0FCA3E0FD900199ECF0EDA3F07409B564
:10167200120575192080037519A0AC10AD11C3ECC9
:101682009408ED9400920540067C087D008004AC2D
:1016920010AD118C068D077D008D037C00C3EB9E7F
:1016A200EC9F5020C007C006C0051214BAD005D066
:1016B20006D0078D037C009001A4E0FA8B828C8314
:1016C200F00D80D5E510C39EF510E5119FF5118050
:1016D2004A900004E0FCA3E0FD900199ECF0EDA338
:1016E200F0900002E0FCA3E0FD90019BECF0EDA382
:1016F200F0740AB5120575194080037519C0AC1053
:10170200AD11C3EC9408ED9400920540067C087D6F
:10171200008004AC10AD118C068D078E828F83225F
:10172200AE10AF11C3EE9408EF9400920640067E0D
:10173200087F008004AE10AF117D008D037C00C3D2
:10174200EB9EEC9F5020C007C006C0051214BAD011
:1017520005D006D0078D037C009001A4E0FA8B82AD
:101762008C83F00D80D5E510C39EF510E5119FF531
:10177200118EDD63DC4022AE10AF11C3EE9408EF90
:101782009400920740067E087F008004AE10AF11DD
:101792008E1A8F1B7D008D037C00C3EB951AEC958E
:1017A2001B40030218338D82758300E09001A0F084
:1017B200C0051214BAD00590019DE06460F07B0070
:1017C2007C0090019BE0F9A3E0FAC3EB99EC9A50FC
:1017D2005C9001A574A1F07401A3F0E4A3F0900160
:1017E2009D75F000C005C004C003121452D003D08E
:1017F20004D0059001A4E0FA9001A0E0F9EAB50155
:101802000AEAB517028004EAB51822A916E4C4232D
:1018120054E0C9C423C969C954E0C969FA8B008C70
:1018220007E928F8EA3FFF88038F0480950D021725
:1018320098E510C3951AF510E511951BF511E51001
:1018420045116006AE1AAF1B80047E007F008EDD5C
:1018520063DC8022C01C85811CAE82AF837C007D4C
:10186200007B10EF235401FAEE2EFEEF33FFEC2C37
:10187200FCED33FDEA6003430401E51C24FCF8C3DC
:10188200EC96ED08964010E51C24FCF8ECC396FC9F
:10189200ED0896FD430601DBCA8E828F83D01C229F
:1018A200C022C0E0C0F0C082C083C007C006C0052D
:1018B200C004C003C002C001C000C0D075D0001275
:1018C2000A5DD0D0D000D001D002D003D004D00520
:1018D200D006D007D083D082D0F0D0E0D02232C060
:1018E20022C0E0C0F0C082C083C007C006C005C0ED
:1018F20004C003C002C001C000C0D075D00030983F
:1019020005121ED1C298309905121F11C299D0D06A
:10191200D000D001D002D003D004D005D006D00729
:10192200D083D082D0F0D0E0D02232C022C0E0C03A
:10193200F0C082C083C007C006C005C004C003C097
:1019420002C001C000C0D075D00030C00512216CA9
:10195200C2C030C1051221ACC2C1D0D0D000D0016A
:10196200D002D003D004D005D006D007D083D082D5
:10197200D0F0D0E0D02232C022C0E0C0F0C082C09D
:1019820083C007C006C005C004C003C002C001C0B6
:1019920000C0D075D00090020AE0FEA3E0FFC007AD
:1019A200C0068E828F83120069D006D007D0D0D0B5
:1019B20000D001D002D003D004D005D006D007D089
:1019C20083D082D0F0D0E0D02232C022C0E0C0F07A
:1019D200C082C083C007C006C005C004C003C002E5
:1019E200C001C000C0D075D00090020CE0FEA3E0A0
:1019F200FFC007C0068E828F83120069D006D0070F
:101A0200D0D0D000D001D002D003D004D005D0066F
:101A1200D007D083D082D0F0D0E0D02232C022C012
:101A2200E0C0F0C082C083C007C006C005C004C0C9
:101A320003C002C001C000C0D075D000900204E013
:101A4200FEA3E04E600E900204E0F8A3E0F5838866
:101A520082120069D0D0D000D001D002D003D004CD
:101A6200D005D006D007D083D082D0F0D0E0D022EB
:101A720032121C2B12013312016380FB7582002289
:101A8200C0D075D00808B8000D09B900090ABA001B
:101A9200050BBB00010CD0D032A2AFC2AFA808A97F
:101AA20009AA0AAB0BAC8A8588F092AF30F51274A2
:101AB200012C600D08B8000909B900050ABA000135
:101AC2000BC3EC9406FCECC313FC75F07DE8A4F8A0
:101AD200ADF075F07DE9A42DF9E435F0FD75F07DEA
:101AE200EAA42DFAE435F0FD75F07DEBA42DFB7D23
:101AF20000EC28F582E93DF583EA3DF5F0EB3D2265
:101B0200A2AFC2AFA808A909AA0AAB0BAC0C92AF4C
:101B120075F020E8A4A8F075F020E9A428F582A8C1
:101B2200F075F020EAA428F583A8F075F020EBA464
:101B320028F9A8F075F020ECA42889F022858233D8
:101B420085833485F035F536121A9B858237858375
:101B52003885F039F53AE533453445354536700177
:101B620022A833A934AA35AB3685373B85383C8564
:101B7200393D853A3EE8494A4B60DBC003C002C0AA
:101B820001C000121A9BAC82AD83AEF0FFD000D030
:101B920001D002D003ECC3953BFCED953CFDEE95E4
:101BA2003DFEEF953EFFC3EC94E8ED9403EE940006
:101BB200EF940040A118B8FF0919B9FF051ABAFF3E
:101BC200011B883389348A358B3674E8253BF53B13
:101BD2007403353CF53CE4353DF53DE4353EF53ED8
:101BE200853B37853C38853D39853E3A8087AE82D4
:101BF200AF83C374019EE49F40022200C374029E1D
:101C0200FE74009FFF00BE0005BF0002002200001C
:101C12000000000000000000000000000000000EB4
:101C2200BE00EB0FBF00ED002275A15575A1AA748D
:101C3200F855B94406F5B975A100901388121BF046
:101C4200759E5D759D0074F055894402F58953C9EE
:0D1C5200EF758C06C28DD2A9D28CD2AF22C4
:101C60009001ABE0F58222AC82AD83AEF0FFC00400
:101C7000C005C006C007901C0075F04E740E121F00
:101C800061AC82AD83AEF0FFE58124FCF581EDC44B
:101C9000CCC4540F6CCC540FCC6CCCFDEEC454F0BF
:101CA0004DFDEFC4CEC4540F6ECE540FCE6ECEFF9A
:101CB0008C028D03C007C006C005C004740AC0E0D2
:101CC000E4C0E08A828B831220EDAA8215811581FF
:101CD000D004D005D006D007C002740AC0E0E4C02A
:101CE000E0C0E0C0E08C828D838EF0EF121F61AC0B
:101CF00082AD83AEF0FFE58124FCF581D002BA0508
:101D000000400D0CBC00090DBD00050EBE00010F0A
:101D1000C29FD29EC29DC2CDC2CC438780740F5554
:101D2000894420F58943C9A0C3E49CF58DD28EC2B5
:101D300099D29CD2AC9001AB7401F022AF82A2AFD9
:101D4000E433FEC2AF900208E0FD900209E0FCED32
:101D5000B5041020080DD2088F99EE6002D2AF753D
:101D6000820122900208E0FD0D53050F7B007C00EC
:101D7000900209E0FAEDB50235EE6002D2AF0BBB7E
:101D800000010C900005C007C006C005C004C003D8
:101D9000121BF0D003D004D005D006D0078B018CE5
:101DA00002C3E99420EA944E40C675820022900254
:101DB00008E024BDF582E43401F583EFF0900208D9
:101DC000EDF0EE6002D2AF758201222008FD229074
:101DD0000206E02410FF900207E0FEEFC39EFF53CF
:101DE000070F8F8222900206E02410FF900207E086
:101DF000FEEFC39E540F601C900207E024ADF582F5
:101E0000E43401F583E0FF900207E0FE0E740F5EFC
:101E1000F08F82227582002220F71130F61388831A
:101E2000A88220F509F6A8837583002280FEF2803F
:101E3000F5F022C01C85811CC082C083E581240589
:101E4000F581AF1C0FE51C2403F8A60708760008EF
:101E50007640E51C24FCFD7E007F40E51C2406F94D
:101E6000A81C088604E51C24FCF886038CF0EBA46F
:101E7000F709A7F0E51C240604F98704A81C0886C6
:101E80000374012DFAE43EFE8A828E838FF01220C5
:101E9000638BF0A4FBE51C2403F8740126FDE40821
:101EA00036FE0886078D828E838FF0122063FDE553
:101EB0001C24FCF886078DF0EFA42B2CF7E51C24DE
:101EC00006F987060987078E828F83851C81D01CBF
:011ED00022EF
:101ED100900206E0FF7E000FBF00010E7410C0E00B
:101EE100E4C0E08F828E8312207FAE82158115813E
:101EF100900207E0FFEEB5070122900206E024AD53
:101F0100F582E43401F583E599F0900206EEF022C2
:101F110030084A900208E0FF900209E0FEEFB506A2
:101F210005A208C20822900209E024BDF582E4342A
:101F310001F583E0F599900209E0FF7E000FBF00F3
:101F4100010E7410C0E0E4C0E08F828E8312207F06
:0E1F5100AE82AF8315811581900209EEF02259
:011F5F00324F
:101F6100C01C85811CC082C083C0F0C0E07A007BA8
:101F7100007E007F007D20A81C08080808E6235485
:101F810001FCA81C08E626F608E633F608E633F657
:101F910008E633F6EA2AFAEB33FBEE33FEEF33FFC2
:101FA100EC6003430201E51C24FAF8C3EA96EB084E
:101FB10096EE0896EF0896401CE51C24FAF8EAC351
:101FC10096FAEB0896FBEE0896FEEF0896FFA81C22
:101FD10008E64401F6DDA0A81C088682088683086D
:0A1FE10086F008E6851C81D01C2262
:101FEB0022AF82BF0200503EEF75F002A4240AFD1F
:101FFB00740235F0FE9001CDE0FBA3E0FC8D828EE8
:10200B0083EBF0ECA3F0BF00028005BF0118800B3F
:10201B009001CFE024FF9288D2A8229001CFE0FF5D
:10202B0024FF928AD2AA22AF82BF02005028BF009F
:10203B00028005BF01088004C2A88002C2AAEF7506
:10204B00F002A4240AFE740235F0FF8E828F837493
:07205B00EBF0741FA3F0225B
:1020630020F71430F6148883A88220F507E6A883A6
:1020730075830022E280F7E49322E022C01C85816D
:102083001CAE82E583FF33E433FD6009C3E49EFBAA
:10209300E49FFC80048E038F04E51C24FCF808E60F
:1020A30030E70FE51C24FCF8C3E496FE08E496FF32
:1020B300800AE51C24FCF88606088607C005C006CE
:1020C300C0078B828C831220EDAE82AF83158115FE
:1020D30081D005ED600DC3E49EFCE49FFD8C828DF1
:1020E3008380048E828F83D01C22C01C85811CAE0A
:1020F30082AF837D007C00E51C24FCF808E62354B2
:1021030001FB702FE51C24FCF8E626F608E633F6FF
:10211300E51C24FCF8C3EE96EF08965011E51C2449
:10212300FCF808E618C313C613C608F680050C8C22
:102133000580C4E51C24FCF8C3EE96EF0896400D19
:10214300E51C24FCF8EEC396FEEF0896FFE51C247D
:10215300FCF808E618C313C613C608F68D041DEC75
:0921630070D18E828F83D01C2202
:10216C0090020EE0FF7E000FBF00010E7410C0E065
:10217C00E4C0E08F828E8312207FAE8215811581A0
:10218C0090020FE0FFEEB507012290020EE024D082
:10219C00F582E43401F583E5C1F090020EEEF022F5
:1021AC0030094A900210E0FF900211E0FEEFB506F4
:1021BC0005A209C20922900211E024E0F582E43460
:1021CC0001F583E0F5C1900211E0FF7E000FBF0026
:1021DC00010E7410C0E0E4C0E08F828E8312207F69
:0E21EC00AE82AF8315811581900211EEF022B4
:0421FA0075820022C8
:1021FE0012011001EF02010881179F0C0401010268
:10220E000301120009025B0003010080640904004F
:10221E000001FF00000407058103080064080B019C
:10222E000202020105090401000102020105052452
:10223E0000100105240100000424020205240601F9
:10224E00020705820308004009040200020A00008A
:10225E000507050302400000070583024000005BEE
:10226E00000403090404001003740069006E007971
:10227E000049005300500010001603550053004251
:10228E0000740069006E007900530050004900167A
:10229E00001C03540069006E007900530050004981
:1022AE00002000440057006900720065001C0016F3
:1022BE000343004400430020005300650072006990
:1022CE000061006C0016000E034400650071006989
:0722DE00006E0067000E0016
:0722E500731A8025000000C0
:0C22EC0000E100000000080000000000FD
:0122F80000E5
:0222F9000000E3
:0422FB0000000000DF
:0422FF00EB1FEB1FC7
:0423030000000000D6
:00000001FF
