:0600000002004B0206E3C2
:03000B0002067E6C
:03001300020736AB
:01001B0032B2
:030023000206973B
:01002B0032A2
:01003300329A
:03003B0002078930
:0300430002063F73
:030046000207DDD1
:02004900E4735E
:0D004B0075813B1207EBE582600302004661
:100058007917E94400601B7A0190177778BC75A07E
:1000680003E493F2A308B8000205A0D9F4DAF27504
:02007800A0FFE7
:06007A00E478FFF6D8FD5A
:100080007800E84400600A799475A000E4F309D888
:10009000FC7828E84403600C7904900094E4F0A311
:0400A000D8FCD9FAB5
:1000A4007521DD752207752300752900752A06E47C
:1000B400F52BF52CF52DF52EF52FF530F531F53220
:0200C400F53312
:0E00C6007808E4F608F608F608F6780C7600DE
:0300D400753A007A
:0300D700020046DE
:1000DA009003947401F0758221120854900395E4F8
:1000EA00F075822102096B121430E5827001221226
:1000FA001437858223E4B52301227401B523030250
:10010A0001B97402B523030201A17403B5230122C4
:10011A007404B523030203277408B52301227480EB
:10012A00B5230302021E7481B5230302027474828A
:10013A00B523030202E774C0B5230302020574C1A2
:10014A00B5230302021074C2B5230302030174C467
:10015A00B5230302030174C5B5230302030174C660
:10016A00B5230302030174C8B5230302030174C94A
:10017A00B5230302030174CAB5230302030174CC35
:10018A00B5230302030174CDB5230302030174CE20
:10019A00B52303020301227582311212E9758241E5
:1001AA001212E975824C1212E97582530212E97E23
:1001BA00007F00EE2494F582EF3400F583E4F00E1C
:1001CA00BE00010FC3EF6480948340E790039574E7
:1001DA0001F075822112096BC37413952FE49530CF
:1001EA00E49531E4953240051203FF80031204DFDF
:1001FA00900395E4F075822102096B120301E5244C
:10020A00C454F0F52D22120301E524C454F0F52E4E
:10021A002202030112030185262F75300075310071
:10022A00853132853031852F30752F00AC25E4FDBC
:10023A00FEFFEC252FF52FED3530F530EE3531F593
:10024A0031EF3532853132853031852F308F2FAC01
:10025A0024E4FDFEFFEC252FF52FED3530F530EEC9
:10026A003531F531EF3532F53222120301AF257EF1
:10027A0000AC247D00EC4206ED42070EBE00010FE1
:10028A00EE2EF529EF33F52AE5292529F529E52A60
:10029A0033F52AC3E495297406952A500675290070
:1002AA00752A06AF277E00AC267D00EC4206ED4299
:1002BA00070EBE00010FEE2EF52BEF33F52CE52BC2
:1002CA00252BF52BE52C33F52CC3E4952B740695D9
:1002DA002C5023752B00752C0622020301120301F0
:1002EA00AE255306407F00EE4FB40100B3E433FF5E
:1002FA008F332202032722900001E4F5F0120A7ECE
:10030A00121437E582F524121437E582F525121402
:10031A0037E582F526121437E582F5272275820120
:10032A001212E97582411212E97582471212E975B1
:10033A00824C1212E97582411212E9758220121258
:10034A00E97582431212E97582481212E9758235FB
:10035A001212E97582351212E97582781212E9755C
:10036A0082201212E97582761212E975823012120F
:10037A00E97582001212E97582021212E975823059
:10038A001212E975822E1212E97582311212E9757A
:10039A0082331212E97582001212E9758221121251
:1003AA00E97582001212E97582001212E975820655
:1003BA001212E97582001212E97582231212E97586
:1003CA0082001212E975824C1212E975824B1212DE
:1003DA00E97582401212E97582401212E9758204A7
:1003EA001212E97582411212E97582021212E97536
:1003FA0082000212E9C2AF783B05A290009415A2CE
:10040A008003D2AF22E52D600FADD4E5D46D70F232
:0A041A00E590652E552D70F37E99D4
:10042500E590C4F6E590D6A5E590C4F6E590D6A589
:1004350000E590C4F6E590D6A500E590C4F6E590F4
:10044500D6A51EE590C4F6E590D6A5EE70D2E5904A
:10045500C4F6E590D6A500E590C4F6E590D6A500CE
:10046500E590C4F6E590D6A5D2AF7E007F00C3EE39
:100475009529EF952A5062E529C39EFCE52A9FFD43
:100485001CBCFF011DEC20E0278C02EDC313CA1331
:10049500CAFBEA2494F582EB3400F583E0FB740F84
:1004A5005BF582C007C0061212E9D006D00780228C
:1004B500EDC313CC13CCFDEC2494F582ED3400F59B
:1004C50083E0C4540FF582C007C0061212E9D006B6
:1004D500D0070EBE00980F809522C2CAC2CDC2CCED
:1004E500C2C943C9C0C2C8C374A8952F742A953020
:1004F50074049531E49532500875CA0075CB0080B7
:100505004B7401252FF51CE43530F51DE43531F527
:100515001EE43532F51F900006E4F5F0121196AC95
:1005250082AD83AEF0FF751C19E4F51DF51EF51FB0
:100535008C828D838EF0EF1207EFAC82AD83AEF027
:10054500FFC3E49CFCE49DFD8CCA8DCB85CACC859C
:10055500CBCDC2CFC2AF783B05A290009415A28047
:1005650003D2AF22E52D600FADD4E5D46D70F2E571
:0B05750090652E552D70F3D2CA7EC099
:10058100E590C4F630CFFDC2CFE590D6A530CFFDC2
:10059100C2CFE590C4F630CFFDC2CFE590D6A530ED
:1005A100CFFDC2CF1EE590C4F630CFFDC2CFE5909E
:1005B100D6A530CFFDC2CFE590C4F630CFFDC2CF76
:1005C100E590D6A530CFFDC2CFEE70B4D2AF7E009C
:1005D1007F00C3EE9529EF952A5062E529C39EFC61
:1005E100E52A9FFD1CBCFF011DEC20E0278C02EDDC
:1005F100C313CA13CAFBEA2494F582EB3400F583D2
:10060100E0FB740F5BF582C007C0061212E9D00649
:10061100D0078022EDC313CC13CCFDEC2494F582DA
:10062100ED3400F583E0C4540FF582C007C0061213
:0E06310012E9D006D0070EBE00980F80952269
:10063F00C020C0E0C0F0C082C083C007C006C005A4
:10064F00C004C003C002C001C000C0D075D00012EA
:10065F001074D0D0D000D001D002D003D004D00578
:10066F00D006D007D083D082D0F0D0E0D02032C0D7
:10067F00D075D00808B8000D09B900090ABA0005ED
:10068F000BBB00010CD0D032C020C0E0C0F0C08244
:10069F00C083C007C006C005C004C003C002C001AC
:1006AF00C000C0D075D00030980512151DC298300B
:1006BF009905121553C299D0D0D000D001D002D0D5
:1006CF0003D004D005D006D007D083D082D0F0D08D
:1006DF00E0D02032C020C0E0C0F0C082C083C0078D
:1006EF00C006C005C004C003C002C001C000C0D016
:1006FF0075D0009003CAE0FEA3E0FFC007C0068ECE
:10070F00828F83120049D006D007D0D0D000D001FD
:10071F00D002D003D004D005D006D007D083D0822A
:10072F00D0F0D0E0D02032C020C0E0C0F0C082C0F6
:10073F0083C007C006C005C004C003C002C001C00B
:10074F0000C0D075D0009003CCE0FEA3E0FFC0073F
:10075F00C0068E828F83120049D006D007D0D0D02A
:10076F0000D001D002D003D004D005D006D007D0DE
:10077F0083D082D0F0D0E0D02032C020C0E0C0F0D3
:10078F00C082C083C007C006C005C004C003C0023A
:10079F00C001C000C0D075D0009003BCE0FEA3E044
:1007AF004E600E9003BCE0F8A3E0F5838882120040
:1007BF0049D0D0D000D001D002D003D004D005D082
:1007CF0006D007D083D082D0F0D0E0D02032120BE9
:1007DF00471200DA1200F11212CA80F87582002255
:1007EF00FB7A20E4FCFDFEFFE5822582F582E5839E
:1007FF0033F583E5F033F5F0EB33FB4017DAE9809F
:10080F0042E5822582F582E58333F583E5F033F502
:10081F00F0EB33FBEC33FCED33FDEE33FEEF33FF48
:10082F00EC951CED951DEE951EEF951F4013EC9565
:10083F001CFCED951DFDEE951EFEEF951FFF4382EF
:05084F0001DABEEB22FE
:10085400E582FF90167293FEEF90164A93FF7001A3
:1008640022900394E0FD701BBF0209EEF4FC529247
:10087400EC529322BF0402800122EEF4FC5296EC67
:10088400529722BD0214BF0207EE4292EE42932217
:10089400BF0439EE4296EE429722BD0116BF02080C
:1008A400EEF45292EE429322BF0421EEF45296EEFD
:1008B400429722BD0316BF0208EE4292EEF4529311
:1008C40022BF0408EE4296EEF4FE529722AF82BF96
:1008D4000102800FBF02028013BF03028017BF040E
:1008E400358023E5C620E22E539DFB22E5C620E396
:1008F40025539DF722AEC65306047F00BE0117BFE1
:100904000014539DFB22AEC65306087F00BE0106A9
:10091400BF0003539DF722E582FF90162293FEEF5A
:1009240090167293FDEF90164A93FF7003F582229E
:10093400EE600D8E82C007C0051208D1D005D00725
:100944007E00BF0202800ABF03028009BF040C803C
:1009540008AE908006AEA08002AEB0ED5E60047575
:1009640082012275820022E582FF90162293FEEF17
:1009740090167293FDEF90164A93FFEE600D8E82EF
:10098400C007C0051208D1D005D007A2AFE433FEDA
:10099400C2AFBF0202800ABF03028017BF043680C1
:1009A40024900395E07007EDF4FF52908027ED4208
:1009B400908022900395E07007EDF4FF52A080151B
:1009C400ED42A08010900395E07007EDF4FF52B063
:0B09D4008003ED42B0EE6002D2AF22C3
:1009DF00A2AFC2AFA808A909AA0AAB0BAC8A858837
:1009EF00F092AF30F51274012C600D08B8000909B0
:1009FF00B900050ABA00010BECC313FC75F07DE8D2
:100A0F00A4F8ADF075F07DE9A42DF9E435F0FD758E
:100A1F00F07DEAA42DFAE435F0FD75F07DEBA42D01
:100A2F00FB7D00EC28F582E93DF583EA3DF5F0EB1F
:100A3F003D22A2AFC2AFA808A909AA0AAB0BAC0C02
:100A4F0092AF75F020E8A4A8F075F020E9A428F57E
:100A5F0082A8F075F020EAA428F583A8F075F0209D
:100A6F00EBA428F9A8F075F020ECA42889F02285D2
:100A7F00821085831185F012F5131209DF85821418
:100A8F0085831585F016F517E510451145124513A9
:100A9F00700122A810A911AA12AB1385141885157D
:100AAF001985161A85171BE8494A4B60DBC003C02E
:100ABF0002C001C0001209DFAC82AD83AEF0FFD0DF
:100ACF0000D001D002D003ECC39518FCED9519FDB1
:100ADF00EE951AFEEF951BFFC3EC94E8ED9403EE31
:100AEF009400EF940040A118B8FF0919B9FF051A37
:100AFF00BAFF011B881089118A128B1374E825180D
:100B0F00F51874033519F519E4351AF51AE4351B80
:100B1F00F51B851814851915851A16851B178087DF
:100B2F00AE82AF83EE4F600F05A105A105A105A110
:100B3F001EBEFF011F80ED2275A15575A1AA74F885
:100B4F0055B94406F5B975A100901388120B2F12F1
:100B5F00114412116E12115D75DD0075D30075D53C
:100B6F0000759E5D759D0074F055894402F589539B
:0E0B7F00C9EF758C06C28DD2A9D28CD2AF22DE
:100B8D00AFDBBF08028003020FB6900007E0FE7FC7
:100B9D0000900006E0FD7C004FF534EC4EF5357FFE
:100BAD0000900001E0F5368F3A900000E0FE5460B1
:100BBD006053900000E0FE5306607D00BE2005BD31
:100BCD000002800BBE4039BD00367FFF020FB874A6
:100BDD0020B53603020FB87421B536028007742292
:100BED00B53618800C121250AD82AE838D07020FF0
:100BFD00B8C00712127FD007020FB87FFF020FB8DF
:100C0D007FFF020FB8E53624F45003020FB2E5362C
:100C1D00240B83F582E536241083F583E47394C2A7
:100C2D00B282B29143B29EB9B8B80F0D0F0E0F0D2F
:100C3D000C0F0D0D0F0F900003E0FEBE0102800D95
:100C4D00BE0202801DBE0302802D020D237538C227
:100C5D007539169016D4E493FD740193FE8D070239
:100C6D000D257538D6753916901721E493FD74014D
:100C7D0093FE8D07020D25900002E0701575382347
:100C8D00753917901727E493FD740193FE8D0702B4
:100C9D000D25900002E0FEBE0114753867753917F9
:100CAD00901775E493FD740193FE8D07806A900093
:100CBD0002E0FEBE021475383775391790174DE4F2
:100CCD0093FD740193FE8D07804E900002E0FEBEF1
:100CDD000314753829753917901735E493FD740190
:100CED0093FE8D078032900002E0FEBE041475382D
:100CFD004F753917901765E493FD740193FE8D07B9
:100D0D008016753829753917901735E493FD7401E0
:100D1D0093FE8D0780027FFFBFFF03020FB88F0583
:100D2D007E00C3ED9534EE953550048D348E35AD82
:100D3D0034AE35C3ED9408EE940040067B087C007C
:100D4D008004AB34AC358B077C00C3EC9F50198C01
:100D5D00027B00EC2538F582E43539F583E493F90F
:100D6D008A828B83F00C80E28F037C00EDC39BFDA8
:100D7D00EE9CFE8D348E35EF2538F538E43539F59A
:100D8D0039020FB8900002E0FE8E34753500020F67
:100D9D00B8900000E537F0AD34AE35C3ED9401EEFB
:100DAD0094005003020FB87F01020FB8900002E0CB
:100DBD00F537020FB8900000E0541F702F9000031C
:100DCD00E0FD7E00900002E0FC7B004206EB420558
:100DDD00BE0114BD00119016DDE493FE30E5030253
:100DED000FB87FFF020FB87FFF020FB8900000E031
:100DFD00FE53061F7D00BE0277BD0074900004E017
:100E0D00FEBE0102805FBE02028049BE0302803336
:100E1D00BE0402801DBE81028040BE8202802ABEB9
:100E2D0083028014BE844474BC55DE4402F5DE0298
:100E3D000FB853DE73020FB874BC55D64402F5D605
:100E4D00020FB853D673020FB874BC55D44402F5D3
:100E5D00D4020FB853D473020FB874BC55D24402E8
:100E6D00F5D2020FB853D273020FB87FFF020FB83D
:100E7D007FFF020FB8900000E0541F702F90000309
:100E8D00E0FD7E00900002E0FC7B004206EB420597
:100E9D00BE0114BD00119016DDE493FE30E5030292
:100EAD000FB87FFF020FB87FFF020FB8900000E070
:100EBD00FE53061F7D00BE0205BD00028003020F1A
:100ECD0090900003E0FD7E00900002E0FC7B00426C
:100EDD0006EB4205EE4D6003020F8C900005E0FD20
:100EED007E00900004E0FC7B004206EB4205BE0153
:100EFD0006BD0003020F80BE0205BD00028060BE6C
:100F0D000305BD00028044BE0405BD00028028BE5D
:100F1D008105BD00028052BE8205BD00028036BE35
:100F2D008305BD0002801ABE8451BD004E74BF55AD
:100F3D00DE4403F5DE8074747F55DE440CF5DE80EF
:100F4D006A74BF55D64403F5D68060747F55D64478
:100F5D000CF5D6805674BF55D44403F5D4804C742B
:100F6D007F55D4440CF5D4804274BF55D24403F55B
:100F7D00D28038747F55D2440CF5D27FFF802C7F00
:100F8D00FF80287FFF8024900000E4F0900001F0A6
:100F9D00AD34AE35C3ED9402EE940040047F028073
:100FAD000AAF3480067FFF80027FFFBFFF077536D3
:100FBD00FF75DCCF22EF24F740068FDD75DCC022F4
:100FCD0075DD0075DCC0227405B53602805F7406D0
:100FDD00B53668AE34AF35C3EE9408EF94004006D5
:100FED007C087D008004AC34AD357D00C3ED9C5094
:100FFD00198D027B00ED2538F582E43539F583E452
:10100D0093F98A828B83F00D80E28C037D00EEC311
:10101D009BFEEF9DFF8E348F35EC2538F538E4358A
:10102D0039F5398CDDAEDC6306408EDC22E5E35408
:10103D0080FFE5344FF5E375DC022275DD0075DCCC
:10104D0002227420B5360D30DE1012120E75DD0041
:10105D0085DCDC2275DD0043DC022275D30074FCD7
:10106D0055D24402F5D22220D90302111FE5D954DD
:10107D000FFFADD95305307E00BD0005BE000280C7
:10108D001CBD1005BE00028036BD2005BE000280CD
:10109D0043BD3006BE000302110502111DEF24FBF6
:1010AD00500302111DEF2F9010B8738008806180DE
:1010BD0009805D805B12104F80561214758051EFC0
:1010CD0024FB404CEF2F9010D7738044804280401A
:1010DD00803E803CEF24FB4037EF2F9010EC738067
:1010ED0008800B800E80298027120FD480221210C9
:1010FD0068801D1214648018EF24FB4013EF2F90AD
:10110D0011107380088009800780058003120B8DF4
:10111D00C2D930D81575DC0275D21275D41275E3AB
:10112D0000C2DAC2D9C2D812120410DA0122E5DAED
:10113D0020E20375D8FF2275E20053E27F43E229D6
:10114D0075E30053E2BF53D1FB75D18043D101222A
:10115D0043E10443E10243E10143D81FD2EAD2AF98
:10116D00227E0A7F008EEE8FEF7E147F008EE48F3D
:10117D00E575EB0C75D21275D4127E007F008EECE6
:09118D008FED75EA4075DC0222C9
:10119600AAF0FBE582851CF0A4FCADF0E583851C76
:1011A600F0A42DFDE435F0FEE582851DF0A42DFDAD
:1011B600E5F03EFEE433FFEA851CF0A42EFEE5F0E2
:1011C6003FFFE583851DF0A42EFEE5F03FFFE58297
:1011D600851EF0A42EFEE5F03FFFEB851CF0A42F44
:1011E600FFEA851DF0A42FFFE583851EF0A42FFFDF
:0E11F600E582851FF0A42F8EF08D838C82225F
:101204009003C5E4F09003C7F0227F0074F925DB56
:1012140050067D077E008004ADDB7E008F037C00DA
:10122400C3EB9DEC64808EF063F08095F0501CEF6E
:1012340024BEFDE43403FEEF2400F582E43400F51B
:1012440083E0FC8D828E83F00F80C1227F008F05A6
:101254007E00C3ED9407EE9400501CEF2400FDE4DF
:101264003400FEEF24BEF582E43403F583E0FC8D04
:10127400828E83F00F80D790000722900002E0FF57
:101284009003C8F0E020E0309003BEE0FCA3E0FD52
:10129400A3E0FEA3E0FFBCB01FBD041CBE0019BF49
:1012A400001675E200C2AF90C350120B2F90C350CA
:1012B400120B2F12380080FE227F009003C8E060DA
:1012C400027F018F82229003C7E070189003C9E067
:1012D400FFE060108FD553D4FC9003C77401F090E5
:1012E40003C9E4F022AF829003C8E060617D007E10
:1012F400009003C7E060240DBD00010E900005C0FE
:1013040007C006C005120B2FD005D006D007C3EDC9
:101314009450EE94C340DA758200229003C9E0FE33
:10132400BE400050207D0074402EFEE43DFDEE24BE
:1013340014F582ED3400F583EFF09003C9E0240145
:10134400F075820122C0071212CAD007809F7582ED
:101354000022AFF0AE83E582900398F0EEA3F0EFA5
:10136400A3F09003C8E0700302142C900396E0FEEF
:10137400A3E0FFC3E49E74808FF063F08095F04097
:101384000302142C7E007F009003C7E060200EBE91
:1013940000010F900005C007C006120B2FD006D025
:1013A40007C3EE9450EF94C340DE7582002290038D
:1013B40098E0FDA3E0FEA3E0FF900396E0FBA3E02A
:1013C400FCC3E49B74808CF063F08095F0509C9097
:1013D40003C9E0FABA400050498A017A00744029EE
:1013E400F9E43AFAE92414F9EA3400FA8D828E8396
:1013F4008FF0121501F8A3AD82AE83900398EDF03F
:10140400EEA3F0EFA3F089828A83E8F09003C9E0A9
:101414002401F01BBBFF011C900396EBF0ECA3F03E
:10142400809F1212CA02136F758200229003C5E0D6
:10143400F582229003C5E07003F582229003C6E092
:101444002414F582E43400F583E0FF9003C6E0043D
:10145400F09003C5E014F0E0700353D4F38F8222BC
:1014640075D50074FC55D44402F5D49003C7E4F058
:101474002230DE199003C5E5DBF09003C6E4F0905A
:0E14840003C5E0600874F355D44408F5D42283
:1014920022AF82BF02005036EF75F002A424CAF5D3
:1014A20082740335F0F583E51CF0E51DA3F0BF005F
:1014B200028005BF0118800B90039BE024FF9288F5
:1014C200D2A82290039BE0FF24FF928AD2AA22AFE5
:1014D20082BF02005028BF00028005BF01088004BD
:1014E200C2A88002C2AAEF75F002A424CAFE740345
:0F14F20035F0FF8E828F837492F07414A3F02272
:1015010020F71430F6148883A88220F507E6A88313
:1015110075830022E280F7E49322E0229003CEE07B
:10152100FF7E008F828E83A3751C108E1D1215EC19
:10153100AE829003CFE0FFEEB50701229003CEE02B
:10154100249CF582E43403F583E599F09003CEEE13
:10155100F0229003D2E030E0449003D0E0FF90030A
:10156100D1E0FEEFB506099003D2E053E0FEF02290
:101571009003D1E024ACF582E43403F583E0F599DE
:101581009003D1E0FF7E008F828E83A3751C108EA5
:0E1591001D1215ECAE82AF839003D1EEF02256
:10159F00E51C451D60467A01E51C25E0F51CE51D9F
:1015AF00334012F51DE582951CE583951D40030A16
:1015BF0080E6C3E51D13F51DE51C13F51CC3E5827D
:1015CF00951CF5F0E583951D4005F58385F082C3E5
:1015DF00E51D13F51DE51C13F51CDAE122C2D5E557
:1015EF008330E70DD2D5E4C39582F582E49583F578
:1015FF0083E51D30E70BE4C3951CF51CE4951DF541
:10160F001D12159F30D50BE4C39582F582E49583A7
:03161F00F583222E
:1016220000000000000000000000000000000001B7
:1016320000000000000000000000000000000304A1
:10164200000002000000000001010101010101018E
:10165200000002020202020202020000030303036C
:10166200030303030000040404040404040400004C
:10167200010204081020408000000102040810202A
:101682004080000001020408102040800000010296
:101692000408102040800000FFFFFFFFFFFFFFFF54
:1016A200FFFFFF00FFFF0102FFFFFFFFFFFFFFFF42
:1016B200FFFFFFFFFFFFFFFF03FFFFFFFFFFFFFF34
:1016C20012011001EF020108091250C501010102C5
:1016D2000301120009024B000201008064080B00A2
:1016E20002020201040904000001020201040524AD
:1016F2000010010524010000042402020524060052
:10170200010705810308004009040100020A0000E4
:101712000407050202400000070582024000004B58
:10172200000403090404000C03430048003500359B
:101732000078000C0016034300480035003500789D
:10174200006400750069006E006F00160016034306
:1017520000440043002000530065007200690061EC
:10176200006C0016000E0344006500710069006EF3
:051772000067000E00FD
:02177700000070
:0C17790000E1000000000800000000007B
:041785009214921414
:0517890000000000005B
:00000001FF
