:040000006F10002F4E
:1000040000000000000000006F0080086F10C02690
:1000140000000000000000000000000000000000DC
:1000240000000000000000000000000000000000CC
:100034006F100009000000006F00E00500000000E0
:100044006F0080056F0060056F0040056F0020059C
:100054006F0000056F00E0046F00200B000000003B
:100064006F0060046F0040046F0020046F00000400
:100074006F00C0176F00C003000000006F00600332
:100084006F0040036F0020036F0000036F00E00265
:1000940001A001A001A001A001A001A001A001A054
:1000A40001A001A001A001A001A001A001A001A044
:1000B40001A001A001A001A001A001A017E3FFDF9E
:1000C400E702C3B38566014681450545CD2A7DF91E
:1000D4008146014681451145DD22B71700401307CB
:1000E40070052380E704130780FA2380E7040100E6
:1000F40001007D572396E70203C7670413671700BF
:100104002383E7042380070401A037870040834743
:100114006700898B85C383477700E207E18763D152
:10012400070697E0FFDFE780002AB787004009470A
:100134002383E700B787004003C76700058B05C723
:1001440009472381E70249472383E7022385E7021E
:10015400A38107001D472383E7002388018E97E0CE
:10016400FFDFE78020F3B787004003C76700118BE8
:1001740011C711472383E70083C75700730020305A
:100184008347770003477700BD8B137707030DC3BD
:1001940093060002E31BD7F805476389E702094782
:1001A400638BE702D9F397E0FFDFE780E05DB5BF3B
:1001B40089CB0947E39BE7F697E0FFDFE7808012EE
:1001C400ADB797E0FFDFE780006685B797E0FFDF14
:1001D400E780206A99BF97E0FFDFE780C00EB1B7E0
:1001E40017E3FFDFE70283A18521FDBFB7170040B6
:1001F400130700032388E702054723A0E192730055
:1002040020302303048015472303E48001002302E4
:10021400A480828083076480E3CE07FE23030480E6
:10022400828083076480E3CE07FE03454480828096
:1002340083076480E3CE07FE2302A48082804111F9
:1002440026C44AC24EC006C61377F50BAD47AA8929
:100254002E8995446306F70019456537653F8D443B
:100264004E854537FD59FD1463983401B240A244CC
:100274001249824941018280135509011375F50F12
:10028400453F2209CDB7011126CC06CEB70408009C
:1002940051371545BD37713769372AC6A53F3245F1
:1002A4009377150089EB136515001375F50FF2406C
:1002B400E24405618280FD14E9FC0145CDBF39713A
:1002C40026DC4ADA4ED852D656D45AD25ED006DE4E
:1002D40062CE66CCB7E700E07D5783AA070022C64A
:1002E40003AA470023A0E71823A2E718B717004082
:1002F400130770052380E704130780FA2380E704BB
:1003040083C74704930B75FFB684E20793FBFB0F87
:100314008546AA892E8B328937240040E18701570C
:1003240063FA76016308D500894613070002631354
:10033400D5000157D98F93F7F70FB71C00402382DC
:10034400FC0411472303E4801305F00F5D3D094CC1
:10035400D13563697C11B70707003E9B37870700D7
:100364007955637EEB02B3079B00636AF702A947E2
:100374006399F90689E48144713D26850DA0DA85E7
:100384000945753D05090345F9FFFD14050B4D3578
:1003940081C49377FB0FFDF7FD3569FD7D55B717D4
:1003A4000040130770052380E704130780FA2380B5
:1003B400E70403C74704418B2382E704F250B7E7FD
:1003C40000E023A0571123A24711E25432445259AA
:1003D400C259325AA25A125B825B724CE24C2161BE
:1003E4008280A5476395F90685691309F00FB30662
:1003F4009900B3742B01B6941349F9FFB3749900AF
:10040400856B33796901416B9387F9FFB3F7270152
:1004140099E363FC340193D94900C147E3E637FF0C
:1004240099BF0569C1697D19D9B71305800D638822
:100434006901130500026384790113051008CA8554
:10044400FD3B913521DD4E99B3843441D9B7DA852A
:100454002D45F533CA94E30099F20509D933A30F66
:10046400A9FED5BF9387F9FF93F7F70F636CFC08D8
:1004740003C75C04B70708001377070219E3B787BB
:1004840007007955E37DFBF033079B00E3E9E7F0D0
:1004940089476390F9048980D549E38E04ECDA85B1
:1004A4000945713B11090327C9FF91472320E480C3
:1004B40003076480E34E07FE23033481FD17EDFB3D
:1004C400FD14110B81C49377FB0FE9FF6D3B71F5AC
:1004D400F1B58547E387F9F4DA852D458D339389A2
:1004E400F4FFE38A04E8353B93F7390091EB832664
:1004F40004800327090093074900E39FE6E63E8949
:10050400CE84F1BFB5476396F9001305900BD53936
:100514009DB5B1471305B00AE38BF9FE9947639E75
:10052400F902DA852D45213B81448D4BA149D5390A
:1005340063967401832704802320F9008504E398DB
:1005440034FF8327048013172B01635507002312FC
:10055400F90015B52322F90039BD9D476399F902C5
:1005640081451305B004E139BD4423200900232249
:100574000900FD597D3193F77400CA9703C707003A
:10058400FD14398D2380A700E39634FFEDB3A14712
:100594006392F904CD398144630D0B008D479304B4
:1005A400C0036308FB009304000563048B019304F8
:1005B40040041375C507E30095DC19459931993951
:1005C400054581312685AD3109459D316D39E314E9
:1005D40005DAE9B391476399F9001305600615310B
:1005E40015391305900925B7E38709D8F15469B380
:1005F40009CDB7170040130770052380E7041307DC
:1006040080FA2380E7042396A702828019C18147D8
:1006140099E982803387F500834607003307F500A4
:1006240085072300D700E397C7FEE5B719C1FD5737
:1006340081E98280910503A7C5FF1105232EE5FEFC
:100644007D16E319F6FEF5B7797122D4173400004C
:10065400130484DB1C4006D626D24AD04ECE91C762
:1006640082979737000023A107DA5C4089CB03D532
:10067400C194BD3F5C40829703D5E194953F1C40F3
:10068400639907189737000083C717EA858B95C7C6
:1006940097370000A38A07E8173700000347F7E8F5
:1006A400914763FCE700792B9737000083C7F7E78E
:1006B400F9178A07A2979C4382979737000083C74C
:1006C40067EB918B89C7971001E0E780A0481C4431
:1006D40091C3829793878194984317360000034609
:1006E40076D03E89973400009384C4CF97370000B6
:1006F40083C747CF93961700BA9683D606006380C4
:1007040006109737000083C7E7CD63F2C708860752
:100714003E97835507002310070003D5C1942EC6C6
:10072400239A0194F135938701969C431735000071
:10073400034545CB13172500BA979C43B2458297CE
:10074400AA8903D5E1946D359737000083C787C91B
:10075400139717008327090003D541951345F5FF27
:10076400BA9703D7070033753501598D2390A70035
:1007740083C70400850793F7F70F17370000230397
:10078400F7C6173700000347F7C563E6E700973756
:100794000000238907C41C40ADEF938781959843DB
:1007A4003E8425CB9737000083C777D891CB973702
:1007B400000083C797D789E7971001E0E78040EAF4
:1007C4001C4082972A8431C59C48AA971737000099
:1007D4002322F7C29387C1959C4385CF03D5C19447
:1007E400013D2285970000E0E780C0BE2254B2504C
:1007F40092540259F24903D5E1944561D5BB85076A
:1008040093F7F70F97360000238EF6BCE3E0C7EEAC
:10081400CDBDB250225492540259F24945618280AE
:100824009167B7C600409387373023A6F6200F1090
:100834000000973700009387E7BA884F938781A415
:100844009C43316713073730F053B7071000FD1787
:10085400918F99833A0523A6E6205D8D828041110C
:10086400B7170040985F3AC6945F3247E39CE6FEB0
:10087400324541018280411106C6D53797360000C2
:1008840083C6C6B3858AB1C6930730333307F502EE
:10089400B337F5023983CA07D98F17370000130716
:1008A40067B4584B01456303F7023385E740636B34
:1008B400F70037653D0889C637856F08130505902D
:1008C400198D3E95173700002328F7B2B240410135
:1008D4008280E5473307F502B337F5022583DE0747
:1008E40065BF0327C50F8346B5009737000093877C
:1008F40067C39C4F58439386160295829043FD1616
:1009040093F6F60F10C3D04350C3904710C7D04797
:1009140050C7904B10CBD04B50CB904F10CFD04FF3
:1009240050CF91C61307070293870702C1BF828085
:100934008347E50193F7E70FF1EF2A870345F501B4
:1009440071E9034607018346870009CA8345A70264
:100954009737000083C797A663E7F50093F706016E
:10096400C5CF814709CA8347871503467715C18ACE
:10097400A207D18F81CA8346B7150347C71522073B
:10098400558FBA97D1CB17370000130727C53847BF
:10099400411122C406C67D548326070863F38600EA
:1009A4003684184375FB17370000034727A19316B5
:1009B4008701E18663D906029387C71395831737A6
:1009C4000000034747A0BA9763D006041D8C9387A1
:1009D40041969C4382973335A400B2402244134588
:1009E400150041018280058B9387C71209CB8A07C2
:1009F4009387F7031305D007B3D7A702C9B78607B0
:100A0400FD071305D003CDBFE372F4FC3705C0A87E
:100A14002A946DBF014582808280411122C41384CF
:100A240081A318404AC006C61C5F26C2138941A38D
:100A34009983858BC1C31C5F97340000938484AE73
:100A440093F7F7F91CDF9737000083C7A7AD93F737
:100A540007048DC3938741969C4382979737000080
:100A640023AAA7AC83C7040093F7F70B173700003A
:100A7400230AF7AA854717370000A307F7AA83C7F5
:100A8400440093F7070481EF938781A49C43D844DF
:100A9400B8D3930700FC173700002307F7A8838710
:100AA400640063D90700832709009C4317370000BB
:100AB400230DF7A618401C5F8583858BC9CBF5579A
:100AC4001CDF010001000100010001000100010020
:100AD400010001000100010001000100010001000A
:100AE40001000100010001000100010001000100FA
:100AF40001000100010001000100010001000100EA
:100B040001000100010001000100010001000100D9
:100B140001000100010001000100010001000100C9
:100B240001000100010001000100010001000100B9
:100B340001000100010001000100010001000100A9
:100B44000100938781A49C4313075004B8CB184039
:100B54001C5F9183858B89CFBD571CDF938781A44C
:100B64009C4323A80704854717370000230EF79AF0
:100B740083270900D8430583058B19C7D843759B80
:100B8400D8C3D843799BD8C3B24022449244024983
:100B940041018280397106DE16DC1ADA1ED82AD6A3
:100BA4002ED432D236D03ACE3ECC42CA46C872C6D1
:100BB40076C47AC27EC09535F250E2525253C25383
:100BC4003255A255125682567247E2475248C248DD
:100BD400324EA24E124F824F216173002030938710
:100BE40081A49443173700001307C793BC5289CFDD
:100BF40083472700858B89EB83473700858BFDD797
:100C04009737000023820792828037C7004013067B
:100C1400C00393062003973500009385A59083278E
:100C24008720C18393F7F7036369F600832787203E
:100C3400C18393F7F70363E6F60083C74500858B0A
:100C4400F9DF8280938781A4944317370000130748
:100C5400678DBC5289CB83470700858B91CB97372F
:100C640000002383078C97370000A38F078A8280B4
:100C740083471700858BF1DFDDB7938781A4904309
:100C840037C70040C145E54683278720C18393F7D2
:100C9400F70363FBF50083278720C18393F7F703EA
:100CA40063E4F6003C52EDF38280138781A318437A
:100CB400AA87185F1583058B25EF034515001505D5
:100CC4001377C51F19C6B386E70083C62600230021
:100CD400D60095C59736000083C6268593F606048C
:100CE4000945A1CAB386E70083C63600054693F5D5
:100CF400F6066390C504E206E18663CC06023385FA
:100D0400E7008347150003470500A20793F7077020
:100D1400D98F1397070141839376074099C61367C8
:100D240007802390E1A4014582802390F1A4E5BFCC
:100D340005458280938681A48C42368597260000DF
:100D44009386467E984593170701C183137817202D
:100D54003E86630408041377072079C303C726007B
:100D64001367170017280000230FE87A13070019E8
:100D7400B8D1130700F8972500002387E57A138775
:100D840081A30C4337080010D855719B13672700C3
:100D9400D8D598413367070198C11377261005C346
:100DA4001376061059CE03C70600136717001726DB
:100DB40000002309E676172700002319077683C667
:100DC400460093C7F7FFC207E206E186C1831841D4
:100DD40063D106029396170163DE060630538D46EF
:100DE40063E9C600854617260000230FD6723453E4
:100DF400FDFE972600009386265B8386460163DD0D
:100E0400060093960701C18663DC06047053894685
:100E140063E4C6007453FDFE1447F58F1CC782803B
:100E240003C716001367170097250000A38CE56E0F
:100E340017270000230A076E172700002318076EE0
:100E4400A9BF03C736001367170017260000A30CB9
:100E5400E66C95B78546172600002307D66C51BF6C
:100E640054471396060163510602B7061000FD1697
:100E740074D3972600009386E656944E850617266B
:100E84000000232DD65649BFA166D58F71B739719D
:100E940006DE16DC1ADA1ED82AD62ED432D236D082
:100EA4003ACE3ECC42CA46C872C676C47AC27EC026
:100EB4005135F250E2525253C2533255A255125692
:100EC40082567247E2475248C248324EA24E124FEF
:100ED400824F2161730020301727000013074766F3
:100EE4008346B7019727000083C7D768B69793F75F
:100EF400F70FFD4663EAF6044C4B97260000A381E6
:100F0400F6649727000083C7B76305473317F700D4
:100F140097260000A380F6666D8F1DEF97260000CC
:100F240083C69665B3F6D70213050002814733D60C
:100F3400F500058A13F8F70F09CE6399E6009727A1
:100F44000000A38F075F828081177DB705071377A1
:100F5400F70F8507E39DA7FC8280938741A59843FB
:100F6400B75702009387279F8326070913965600D5
:100F74006358060083260709139666006344060037
:100F8400FD17FDF3828051C9AA870145C9C98D07A0
:100F9400C207C183F19BC207C18313074003636B7C
:100FA400F702138781AE0843138701AE1443639697
:100FB400A602172700001307273F185B014525C326
:100FC4004111C20706C60545DD8D0297B2400145B1
:100FD40041018280138741AEF9B70357650005EFDD
:100FE400035745006369F702B306F740214663706F
:100FF400D6021041938687001D8FAA96611790C26E
:101004002392E6002393060014C12312F500231350
:10101400B50021058280084159BF01458280828044
:1010240001CD938781AE03A80700938701AE8C435B
:101034000147C28763E3B70082809443636FF50678
:1010440063EDA60613868700E368C5FE03D5670033
:10105400216605066317C50003C6819F0506238C18
:10106400C19E2393070063840703138641AE104295
:10107400630FF6000356670019EA83D7470014C3C9
:1010840083564700B697A1072312F700BA879843FF
:10109400E304B7FA938641AE9442E30FD7F883563C
:1010A4006700D9FA83D64700035647001843A106C0
:1010B400B2962392D70098C382803E87B6879DBF9D
:1010C40003A881AF83A8C1AF37F700E01305180068
:1010D4003336050123ACA1AEB307160123AEF1AE3E
:1010E4005C4BF59B5CCB978001E0E78040987300F4
:1010F4002030B7170040130770052380E704130757
:1011040080FA2380E7042396A70223800704371775
:10111400004083472705898BEDDF83570705371781
:10112400004083472705898BEDFF3717004083472D
:101134002705898BEDDF035507058280B71700402B
:10114400930670052380D704130780FA2380E704ED
:1011540003C6B7041376F60DA385C70423800704DA
:10116400137605022DC603C6A700118A0DE223805B
:10117400D7042380E70403C7A70013674700238528
:10118400E7009307004B01000100FD17EDFFB717BF
:101194000040930670052380D704130780FA238048
:1011A400E7047D892394A7000100010001000100E8
:1011B400238007042380D7042380E70493061005C3
:1011C40037270040A303D780238007048280137647
:1011D40005046DDE03C6A700418A0DE22380D7040F
:1011E4002380E70403C7A700136707012385E700EB
:1011F4009307007D01000100FD17EDFFB7170040C4
:10120400930670052380D704130780FA7D89238011
:10121400E704136505042394A700010001000100FD
:101224000100238007042380D7042380E704930666
:1012340030053727004079B717D3FFDFE702039C57
:101244008146014681451145EFF06F87B71700408D
:10125400130770052380E704130780FA2380E7044B
:1012640003C76704136717002383E7042380070475
:1012740017D3FFDF6700C39A8146014681451145B4
:10128400EFF0EF83B7170040930670052380D7046F
:10129400130780FA2380E7047D562396C702238030
:1012A400D7042380E70403C7670413671700238365
:1012B400E7042380070401A0BD473305F5020100BC
:1012C4007D1575FD828017D3FFDFE7022393AA847F
:1012D40001446316940017D3FFDF67006394050489
:0C12E4001305803E4204C93F4180E5B77D
:1012F000974100209381013017710020130181D0A4
:1013000013054000972500209385C54F1736002010
:101310001306067E63FAC5008322050023A055004C
:1013200011059105E3EAC5FE17E501001305452DFA
:10133000973500209385057C1386818D63FAC5005F
:101340008322050023A0550011059105E3EAC5FE9F
:101350001385818D97650020938585CE6377B500D1
:10136000232005001105E36DB5FE9302800873A0EC
:101370000230972200209382E24893E21200739099
:10138000523097C201009382E2CB7390123417C59A
:101390000100130585FAEFB07179EFB0317D73006C
:1013A00020302A8309CA83830500230073007D1639
:1013B000050385056DFA82802A8311C62300B300D8
:1013C0007D16050365FE8280397101436EC619A042
:1013D000397141536AC866CA62CC5ECE19A03971B0
:1013E00001535AD056D252D44ED64AD826DA22DCED
:1013F00006DE33016140828241114AC026C222C406
:1014000006C68282B24D4101024D924C224CB24B33
:101410004101024B924A224AB24941010249924497
:101420002244B24041018280B7F70100938787AF21
:101430001CC16F00704FEFF23FFC2A84F537930513
:1014400080022285EFB0516ED1BFB7F701009387BC
:10145000C7901CC1D1BFEFF23FFA2A84FD37930534
:1014600080022285EFB0516C55BFEFF2FFF8F165B5
:101470004111094693850520138501D1EF00206BAA
:1014800085451305400CEFB0515085451305500CB0
:10149000EFB0B14F85451305200CEFB0114F8545D6
:1014A0001305200CEFB0315791451305300CEFB008
:1014B000D14D89455145EFB0514DB7F507008146F3
:1014C0003000E105194597200020E780805FB7F5DF
:1014D0000100938545831385C1B1EFC00113834794
:1014E0009100254613D74700930677036364E6000F
:1014F000930607031387C1B12303D700BD8B25468D
:101500001387C1B1938607036374F600938677034C
:1015100083478100A303D700A54593D647001386D0
:10152000060363F4D500138676032304C700BD8B3E
:101530002546938607036374F600938677039385A5
:10154000C1B1138581C2A304D700EF10400E1385EB
:10155000C18DEF00D033AA85138581C2EF10E01151
:101560009385C18D138581C2EF10C02D138581C273
:10157000938541C0EF10002D138581C2938541BC36
:10158000EF10402C138581C2938541B8EF10802B5A
:10159000138581C2938541B4EF10C02A0566138577
:1015A00081C21306267C8145EF10000C05661306E8
:1015B000067F8545138581C2EF10000B138581C21C
:1015C000EF104011D145138581C2EF10C0274101B2
:1015D000B1B5EFF27FE201112A84EF00D02E2AC6C6
:1015E0002285EF00F02DB2452A861305F101553B07
:1015F0000305F10105611DB5EFF21FE0138581C2FE
:10160000EF00307A37F40100930504841385C18D0F
:10161000EF009056930504842946138501C0EF001E
:10162000305637F4010037F6010093054485130660
:101630008684138581BEEF00703DB7F50100094631
:101640009385C585138501BCEF00905337F60100E3
:101650009305448513064686138581BAEF00103B37
:10166000B7F50100214693850587138501B8EF0082
:10167000305137F60100930544851306868713859C
:1016800081B6EF00B038B7F5010041469385458833
:10169000138501B4EF00D04E37F601001306C6885B
:1016A00093054485138581B2EF00503685BBEFF278
:1016B000BFD44111EFB0114783A7818D9306300647
:1016C000B307F54063F2F60423ACA18C1305300C8C
:1016D000EFB0112993572540AA8405469305F100E0
:1016E000138501B4A307F100EF001026B7F5010040
:1016F00093858589138501D1EFA0216D2946A685A3
:10170000138501D1EFA061795145EFB071391335DF
:101710001500A307A10005469305F100138501BC40
:10172000EF009022138501C0EF00902B29C1B7F57F
:1017300001009385858A138501D1EFA0216C138563
:1017400001C0413D9375F50F4146138501D1EFA0CE
:10175000C174138501D1D12E138501C09D3D05892A
:10176000854511E181451305400CEFB0D12A138561
:1017700001B8EF00F02629C1B7F501009385858BEC
:10178000138501D1EFA08167138501B89935937551
:10179000F50F4146138501D1EFA02170138501D1CA
:1017A0006926138501B835350589854511E18145DF
:1017B0001305500CEFB03126138501D1BD26410130
:1017C000B1B9EFF27FC3B7F50100AA849385858C88
:1017D000138501D1EFA0215F2685EF00D00BAA85EC
:1017E000138501D1EFA08161138501D13D2E3DB15B
:1017F000EFF29FC0B7F50100AA849385458E13854B
:1018000001D1EFA0415C2685EF00F008AA85138581
:1018100001D1EFA0A15E138501D1012E01B1EFF23C
:10182000BFBD138581B2EF00B01C138501B43139FF
:10183000138581B6EF00D01B138501B839311385AC
:1018400081BAEF00F01A138501BC0131138581BE06
:10185000EF00101A138501C0CD3E37F701009387C2
:1018600081C2130707B898C337F70100130747BBB6
:10187000D8C337F701001307C7BC138541CC98C7FD
:10188000EF00302A138581C3EF00907E41BE75AC16
:101890002384018E2383018E8280B787004083C614
:1018A00087003756002093F6F60F8147B6881D480B
:1018B000130606DF9385C18F13F7F80F6373D80003
:1018C0001D4713F5F70F6363E50082803385B7008A
:1018D000034505003387C70085072300A700E9BF3C
:1018E000EFF29FB1B75500201D46938505DF1385A4
:1018F000C18F453C1D451DB603C7E18FA382E18E14
:1019000083C7518E858B89EFB757002003A707DF68
:101910009307004B6316F70097200020E78040FAFA
:101920008280B1679387073503C7618E19E3054548
:10193000828001000100010001000100010001009E
:10194000010001000100010001000100010001008F
:10195000010001000100010001000100010001007F
:10196000010001000100010001000100010001006F
:10197000010001000100010001000100010001005F
:10198000010001000100010001000100010001004F
:10199000010001000100010001000100010001003F
:1019A000010001000100010001000100010001002F
:1019B000010001000100FD17C207C183B5F7014511
:1019C000828003C5518E3335A0008280EFF23FA1A3
:1019D00083C7618EA9E783C7418EB1C337840040B6
:1019E0002304F4028347A402854993F7C70F230514
:1019F000F40203C7418E2383318F93070004631ED3
:101A0000F700053719C9230404028347A40293F79A
:101A1000C70F2305F4022383318F2382018E6FF0D9
:101A20005F9F83C7518E9DCFEFF21F9D2A841309BC
:101A3000F003C53D15C583C7418E6361F9029386E6
:101A4000070493F6F60F138701D236972300870019
:101A500085072382F18E05456FF05F9C853FD1BFDE
:101A60000145DDBF0145828003C5818E828083C729
:101A7000818E0145A9C703C6718E938701D2B297A3
:101A800003C5070083C7718E850793F7F70FA383FC
:101A9000F18E83C7818EFD1793F7F70F2384F18EA4
:101AA00083C7818E81C76205618582803787004048
:101AB0008347A70293F7370F2305F702EDB782801C
:101AC00009B737870040230407028347A70293F72B
:101AD000C70F93E727002305F7022383018E828037
:101AE000378700408347670093F7070485C783471C
:101AF000870093F7F70F2384F18EA383018E83C7AA
:101B0000818E89CB8347A70293F7370F93E787002E
:101B10002305F7028280014582807D558280A9B726
:101B2000B9B7139585016185EDBD4DB551BF85B33D
:101B3000938701D11307803E98C737F70100130739
:101B4000C79323A2070098C38280B78700402380F1
:101B5000070009472381E702130700042386E700F3
:101B600049472383E702B146A386D7002385E702CE
:101B70001387C18F420741832398E7001387418F62
:101B800042074183239AE700138701D2420741832A
:101B9000239CE7007D572383E700A38107001307F9
:101BA00090022380E700130710F8A380E7001D4789
:101BB0002381E700B7E700E03707400023A0E710E4
:101BC0008280EFF27F8337840040834784009387CD
:101BD000C18F03D6670083C6170083C70700239908
:101BE000C18EA388D18E13F80706630608049307F5
:101BF00000026315F80293071002638AF600930748
:101C000020026388F602639B0601014545A8C93995
:101C10001375F50F9307F00F631CF534FD57A38878
:101C2000F18E1307F0FCB78700402381E7026FF0C5
:101C3000EFFED931D9BF2D48E362D8FE37F8010055
:101C40008A06130808A1C29694421387C18F828620
:101C5000834737000945638AA7068D466380D70806
:101C60008546E39DD7FAB7F701009387C79F23A660
:101C7000F18E83C7618A9306F00FE381D7FA63F48C
:101C8000C7002399F18E83D7218FA1463E8563F348
:101C9000F600214503A6C18E9318050193D80801CB
:101CA0001375F50F814613F3F60F636FA308B3871F
:101CB000174146962399F18E23A6C18EB78700401F
:101CC0002380A702130700FC8DB7B7F701009387A5
:101CD000079B23A6F18E83C7418A71BF83462700E5
:101CE00081EA9386018A23A6D18E83C7C18961B711
:101CF0000548639B0601B7F601009386469623A626
:101D0000D18E83C7418985BF639BA600B7F60100CA
:101D10009386C69823A6D18E83C78189A9BF114512
:101D2000638BA600B7F601009386469A23A6D18E50
:101D300083C7A18989B7B7F601009386469723A682
:101D4000D18E83C7618905BF3303D600034E0300DC
:101D50003303D70085062300C301B1B783472700AB
:101D60002399F18E5DB583C7018F3335C000230001
:101D7000F700A9B7034727002388E18E79B5FD8BCB
:101D800099EF035727008547E31AF7E8B7F70100F3
:101D900083C7779B93F70702E39907E641B5894626
:101DA000E39ED7E603474700930610086303D70A6C
:101DB00063EDE6028D466307D70863EEE6008546CD
:101DC0006304D70AE31CF7E4378700408347A70280
:101DD00093F737073DA89147E312F7E437870040B0
:101DE0008347270393F7370781A0930730086300E1
:101DF000F704930740086301F70293072008E31FE5
:101E0000F7E0378700408347A70293F7C70B93E7B4
:101E100027002305F702D5BB3787004083472703F8
:101E200093F7C70B93E727002309F702F9BB37871E
:101E300000408347E70293F7C70B93E72700230788
:101E4000F702E1B3378700408347E70293F737078C
:101E5000FDB7378700408347670293F7C70B93E7C7
:101E600027002303F70255B33787004083476702F3
:101E700093F73707FDB7FD8B89D78946E390D7DA0B
:101E800083562700E39C06D80357470093061008A3
:101E90006303D70A63C1E6048D466305D70863C0B0
:101EA000E60285466302D70AE31AF7D63787004071
:101EB0008347A70293F7370793E7C70099BF914776
:101EC000E31EF7D4378700408347270393F737078C
:101ED00093E7C70091BF93073008630CF70293079D
:101EE0004008630FF70093072008E319F7D23787FC
:101EF00000408347A70293F7C70B93E7370011BF52
:101F0000378700408347270393F7C70B93E73700D2
:101F100021BF378700408347E70293F7C70B93E75A
:101F2000370031BF378700408347E70293F7370711
:101F300093E7C70029B7378700408347670293F7C5
:101F4000C70B93E7370031BF3787004083476702ED
:101F500093F7370793E7C7002303F702C1B1239E26
:101F6000018E85470945E3EBC7D41375F60FB9B366
:101F7000A147E3F5A7D423000402930700FC230143
:101F8000F40275B183C7118F15476387E7061947B8
:101F90006391E70803D7218FA146BA8763F3E60070
:101FA000A14703A6C18E139807011358080193F7A0
:101FB000F70F81469385C18F13F3F60F6364F30225
:101FC0003307074142962399E18E23A6C18E3787B6
:101FD00000402300F7028347270293C70704230129
:101FE000F70282803303D600034E03003383B6002A
:101FF00085062300C301C9B73787004083473700F0
:1020000083C6218F93F70708D58FA301F70089476F
:10201000F9B7B78700402380070209472381E70209
:10202000828003C7118F930700026317F702EFF254
:10203000AFBC378400408347640093F7070499CB13
:10204000EFF0BF85230004028347240293F7F70FC4
:102050002301F4026FF08FBCB78700402380070292
:1020600003C72702136727002381E702828037878F
:102070000040230207028347670293F7C70F93E7E5
:1020800027002303F70282800CC150C182800841DF
:10209000828048418280EFF22FB6938501DA1105E4
:1020A000112E138501DA6FF06FB7194611056FF025
:1020B0004FAF1946814511056FF00FB00CC1D5BF68
:1020C0000345C5008280084982800345450182801E
:1020D000014582801C49AE9703C507008280EFF25C
:1020E000AFB11C41AE84B285DC4F36862A8482971C
:1020F0008547230BF4005C4C81C7A2852685829717
:102100006FF0CFB1EFF24FAF41112A842E852EC66A
:10211000EFB0C1501C40B2451376F50FDC4F22855D
:10212000829741016FF08FAF084919C16FB0612AE2
:102130008280EFF26FAC2A84C53F9305800222852E
:10214000EFB0811E6FF08FADEFF20FAB0347C5000C
:102150002A84B2876363E600BA870848230AF4003A
:1021600013F6F70FEFF0EFA31C4C054591C798430A
:10217000A2853E85184302976FF04FAAEFF22FA673
:1021800032890D662A84130636801105B6848522AD
:10219000B7F70100938787A41CC05147D1476363F9
:1021A0009700A6872306F40023280400230A0400CE
:1021B000A30A2401231B0400232C0400314681457B
:1021C0001305C40193F9F70FEFF00F9F89C44E85F3
:1021D000EFB0A11F08C86FF0CFA30345550182805F
:1021E000AA8703456501238B070082800CCD82807E
:1021F0008280084982800345450182801C49AE9750
:1022000003C507008280E1456FB00112EFF2CF9E57
:10221000B2840D662A84130606901105C928B7F703
:102220000100938787A71CC004C82685EFB0013F33
:10223000230AA4006FF08F9E8280828082800145F5
:1022400082808280828001458280014582800145B2
:10225000828001458280014582800145828001455E
:10226000828001458280014582800145828001454E
:102270008280014582808280828082808280D145F6
:102280006FB0810AB7F70100938747A91CC1930774
:1022900040065CC18547231405002305F50023266D
:1022A00005002328050082800CC9828005458280B4
:1022B000B7F70100938787AF1CC1BDB5EFF2CF938D
:1022C0002A84FD37930580022285EFB0E1056FF087
:1022D000EF94EFF26F922A84B6844D35B7F7010080
:1022E000938787AF1CC0230A94006FF02F93EFF2FF
:1022F000AF90593B83C7419085072382F1906FF0DF
:10230000EF9103C541908280EFF20F8FB53B83C7F9
:1023100051908507A382F1906FF04F9003C55190C3
:1023200082808280930500036FB00100EFF2CF8CB2
:10233000B2840D662A84130636801105F137B7F78B
:102340000100938787B21CC023069400A3060400F3
:10235000230204022324040223060402A306040227
:1023600023070402A30704026FF04F8B0CD5828071
:102370000D661306068049BF0D661306068085BFED
:10238000EFF28F87411185462A84A137B7F7010004
:10239000938787B31CC09305F10005462285A307E8
:1023A00001005D33B7F701009387C7901CC041015E
:1023B0006FF0CF86EFF2AF82797137F40100AA8413
:1023C0002E8968009305C4B6EF90D1409305C4B63A
:1023D0002808EF9031401544BD4A37FB010037FA19
:1023E0000100B389840083C7090063E7FA009305FD
:1023F0000BB66800EF90314F83C509004146481085
:10240000EF9051484C102808EF90F1434810EF909E
:1024100011332C086800EF90914C05E08146494645
:10242000CA856800EF90914E2808EF9051316800FE
:10243000EF90F13045616FE0DFFD93054AB668002B
:10244000EF90714A7D1471BFEFE27FF941110CC129
:10245000230A05002A842E852E89231601002307CE
:102460000100EFB0A11B9304F5FFBD49130AD00290
:1024700063C604008347440163F5F90041016FE03E
:102480005FF93307990083070700639547018504C7
:10249000F914F9BF0347F7FF414681456800230659
:1024A000E100A306F100EFB0412C8347440133075C
:1024B000F4002302A7008507230AF400D1BF110509
:1024C00082800345450182800145828001458280EA
:1024D00001458280014582800145828001458280DC
:1024E00001458280014582800145828001458280CC
:1024F0000145828082808280828082808280828088
:10250000828048451C419C5382877115DDBFAA8596
:1025100032851C4136869385C50CDC53BA8682878A
:10252000EFE29FED41112A84B2851305C50C2AC63E
:10253000EFF0BFB78327840D99C33245829701001E
:1025400041016FE0BFEDEFE23FEB8327C50D411185
:102550001305C50C81C72AC682973245EFF07FB5B7
:1025600041016FE0BFEB13F515001DC9EFE2DFE895
:102570002E84EFF0CF93B757002003A787DF930790
:10258000803E13061027B387E702854533C6C7028E
:1025900003C5C180EF10C073134514006FE01FE83E
:1025A0008280EFE27FE5B7F70100938707B81CC18F
:1025B000B7F70100938747BB5CC1B7F7010093876A
:1025C000C7BC930405012A841CC52685EF00502B47
:1025D000B7F5010013054409232E0406232004083F
:1025E00023220408230404082326040823080408DB
:1025F000938585B6B53BB7F50100130600021305B8
:10260000C409938505B71D33A2851305C40CEFF0EB
:10261000FFAA44C40100414681451305840DEFE043
:10262000BFD94844A285EFF03FC86FE03FDFEFE23B
:10263000BFDC41116CDD2E852EC6EFA0317ED14767
:10264000B245514463E3A7002A8437550020930420
:1026500005AF2286A294130505AFEFE09FD4238037
:10266000040041016FE09FDBBD4763E7B70093853E
:1026700045038A052E9510C582802320B5088280E7
:10268000EFE29FD78327C5082A84AE8481EBEFF061
:10269000FFC80A05EFA071532326A40803470409C5
:1026A0008327C4080A07BA9784C3834704098507A8
:1026B0002308F4086FE09FD6EFE21FD42A84EFF0DE
:1026C0005FC40A05EFA071502322A4082304040864
:1026D0006FE0DFD4EFE2BFD0832505083571230614
:1026E00001022A84014A8DCDC800EFF0FFD5C80051
:1026F000C93BD1472A8663E5A702230EA1040947F7
:1027000099476363A7008947C80032CEA30EF1043E
:102710007D337246AA851305E105EFE09FC8054A9F
:102720006C5C9DC92E852ECEEFA0516F1375F50FF1
:102730005147F245AA876373A700D14713F6F70FF5
:102740002306F102A1476363A600A5471305E10232
:10275000A306F102EFE0FFC48327440899E3228532
:10276000A13F8D69014993893980930A44001DA0D6
:102770008327440813172900BA9784432685EFF06E
:102780005F916318350191C0F114D6852685EFF06D
:10279000FFA5050983478408E34CF9FC8D690149CD
:1027A00093893980930A8400834704096343F904B9
:1027B00089CB930544092285E1359305040A2285D6
:1027C000C1354844034704098346C1021C413AC04D
:1027D0008328C40803A38700034884088327440888
:1027E0007810F008B336D000D28502930D616FE007
:1027F0005FC28327C40813172900BA97844326852C
:10280000EFF03F896318350191C0F114D685268514
:10281000EFF0DFB5050949BFEFE21FBE832745088A
:102820002A84AE8491E3493D034784088327440802
:102830000A07BA9784C38347840885072304F408EA
:102840006FE0DFBDD1BFEFE23FBB09651305655601
:102850002E84EF10100385452386A180EF10A0344D
:10286000B757002023AC87DE97100020E780801741
:10287000B7F70100938747BF1CC16FF03FA0EFE29D
:10288000BFB72A84F5379305C0062285EFA0D1296A
:102890006FE0DFB8EFE25FB31D712A843E8BC28A1E
:1028A0002E8AB284B6893A89EF00F017EF003029FA
:1028B000EF7001618D47A309F40293072010231ADA
:1028C000F40099472322640723045407230BF400E0
:1028D000631C0A18A30904046391091E99478544DF
:1028E0002316F1021306B10293074006854513052E
:1028F00050302317F102A3059102EF706133834535
:1029000034051306440313057030EF7061328345BC
:1029100034031306440113056030EF706131701009
:10292000894513051031EF70A1301306E102894586
:1029300013052031EF70C12F930500050D45EF30D1
:102940004027930500051145EF30A026B0009145C2
:1029500013057040230C9102230E91022300910471
:1029600082C423020104EF608129301885451305D4
:102970000040EF60C1287018854513051040EF60D6
:102980000128D000854513052040EF6041279000C5
:10299000854513055040EF6081267D55EF407067F7
:1029A0007D558D6AEF70202D138B3A80EF00303A01
:1029B000814981440149014A938A0A80034584067A
:1029C00063C8A91452954A9528CC1205EFA0F11FAF
:1029D00068C82685EFA0711F24D0B14468CCAA89AD
:1029E00033059A0223A84191814A814B014B8D6C9A
:1029F000EFA0B11D23AAA1903305990223A4219130
:102A00000149EFA0911CB7F701009387875C3EC88E
:102A1000B7F701009387075E3ECAB7F701009387B7
:102A2000475C23A6A1903EC68347840663CBFA1475
:102A30000D65130585ECEF90804C8355840568483F
:102A4000B7560020938686B04146EF70201A37565D
:102A50000020130606AFD5450145EF40B04DEF000D
:102A6000504925616FE01F9AE38604E68904814A94
:102A70000345340383C7E4FFA6853307A400850715
:102A8000230AF70083C7F4FF09051375F50FA30A9E
:102A9000F700A309A40203C6E4FF51052295EFE065
:102AA0005F9003C7E4FF83473403850AD904BA97CC
:102AB000A309F402E3CE4AFB31BDE30109E293042A
:102AC000290001490345340583C7E4FFA685330780
:102AD000A4008507230AF70283C7F4FF09051375CD
:102AE000F50FA30AF702A309A40403C6E4FF130524
:102AF00045032295EFE0FF8A03C7E4FF83473405CF
:102B00000509D904BA97A309F404E34D39FBF9B3D5
:102B10007C5013972900BA9703AC07006285EFF049
:102B20000FD7AA85A800EFF03F926285E28BEFF005
:102B30004FD66315650363030C00711CA800EFF00A
:102B40005F980D051375C50F2695930445006285A2
:102B5000EFF0AFE84189050A11C105095E85EFF084
:102B60004FD3631B5501A800EFF0BF950D051375FA
:102B7000C50F2695930485005E85EFF08FD18509FA
:102B800035BD7C5013972A00BA9784432685EFF011
:102B90000FD0AA85A800EFF03F8B2685EFF06FCF0E
:102BA0008D6793873780631FF518014A99C0138A90
:102BB000C4FFA8004ED8EFF09F902AC4A800EFF001
:102BC0005F90A2452A864E85EFE0AFFDA800EFF0AA
:102BD0005F8F0D051375C50FAA9952854EDAEFF078
:102BE000CFDF2380A9005285EFF02FDF9357150028
:102BF000858B52853EC4EFF04FDE2189A2479109B3
:102C000019C193E7270052853ECCEFF00FDD832DED
:102C10004405C24713174900BA9D89462380DD0049
:102C200011462C1813854D003EDC3AC4EFE06FF7D7
:102C300005462384CD004C1823850D00A3850D0087
:102C400011461385CD00EFE0CFF52247832D4405D3
:102C5000A80013060701B29D3ACEEFF09F862380AD
:102C6000AD0011460C1813854D00EFE08FF3E247DD
:102C700023850D00A3850D002384FD0083270A0111
:102C800011466C181385CD003EDEEFE08FF1B147A1
:102C9000B305FB0203250A0003A64191050B032897
:102CA000050152852E962ECC2320B60132C40298FF
:102CB0002246E245930729002302A60003A641917C
:102CC00052853EC42E9623244601EFF00FD1418950
:102CD0007247B147894635C53386FB0283A7C19049
:102CE000130707028C00850BB38DC70023A44D0189
:102CF000032A4405130619002392CD003A9A37F7A8
:102D000001002300DA001307C75C114613054A00CF
:102D1000BAC0EFE00FE90D472304EA0023050A00DB
:102D2000A3050A00CC0011461305CA00EEC2EFE06D
:102D30004FE7416593073900EE857D153EC4EF608E
:102D4000B07622492685EFF0CFB493870C80631EBE
:102D5000F506A800EFF0AFF62AC4A800EFF06FF672
:102D6000A2452A864E85EFE0CFE3A800EFF06FF58D
:102D7000130A3500137ACA0F4E9AA800D2C0EFF09A
:102D80004FF42300AA0023223A0193098A00032A60
:102D900044059317490011463E9A89472300FA00DB
:102DA000D247CC0013054A00BEC2EFE08FDF854753
:102DB0002304FA0023050A00A3050A0011468C002B
:102DC0001305CA00EFE0EFDD05092685EFF06FACD3
:102DD00093870C90631EF504832D440593174900D7
:102DE000BE9D13854D00B9C489472380FD00B247BD
:102DF00011468C00BEC0EFE0CFDA85472384FD008A
:102E000023850D00A3850D0083A7C4FF138AC4FF8B
:102E100052859C470509829783A7C4FFAAC25285A1
:102E2000DC4782972A86CC001385CD00EFE06FD770
:102E3000850ADDBE89472380FD00B24711468C001C
:102E4000BEC0EFE00FD685472384FD0023850D002B
:102E5000A3850D009C40029032853E86AD473DE340
:102E6000EFE28FD983C785003684858BA1CB03A77A
:102E7000019183A74191814463D4E40203A8070030
:102E80009386C7006399050383C747006343F60031
:102E90003E86CC452310C40097100020E78040F701
:102EA00003A7019181476395E40023100400A9471B
:102EB0003E856FE0AFD68504B6877DBF23900600C0
:102EC0008947FDB73E858280C167F9176301F50424
:102ED000EFE2EFD08547AA846392F5020144314ABC
:102EE00083A781906353F402B307440383A5C19081
:102EF00026850504BE95EF60305BDDB78947639694
:102F0000F5008545EF90200871D96FE08FD0828061
:102F1000EFE20FCC41112A8A2E852E84EFF0EFAB21
:102F2000418955E1054541016FE00FCE338C7903AE
:102F300083A7C190E2979C476317F4021C40228547
:102F40009C4B82972A862315A10003D504000147D4
:102F50008146ED45EF4090422AC62A8919E9ED45A0
:102F60002800EF409059850983A78190E3C0F9FCC0
:102F700055BF1C402285DC4782970356A100AA85D5
:102F80004A8597100020E780A0E883A5C19003D56B
:102F90000400E295EF504004058971D183A7C190E8
:102FA00003D504000146E29703D7470083274A056B
:102FB0002C001207BA9783D7A7002314F100EF5013
:102FC000905D51FD4DB78149B14B9384C19369BF69
:102FD000EFE28FC203C885001374080251EC137826
:102FE0002800630D080803C305000948AE87B28EA8
:102FF000368EBA886308030583A5019103A8419121
:10300000814463DBB402032308001305C800639EF8
:103010006704639F08048347480063EDC70583A5E1
:10302000819199C9884909C91C41032688001377F1
:10303000FE0F9C4BF686829783A701916394F4025E
:1030400029440DA003A84500034F0800E3166FFABA
:103050000343180013089002E31003FB8547EF4079
:10306000F07C2A8422856FE06FBB85042A8851BFDB
:103070002D44D9B73544C9B72144EDB70D44DDB768
:10308000EFE28FB72A84EFF0EF9FB7F70100938745
:1030900047BF1CC023AC819023A80190A309040260
:1030A000A309040423A401906FE04FB7AA8708493D
:1030B00019C5184113864500BE85184302878280D2
:1030C000AA8503A5819111C1D5B78280AA85084937
:1030D00001C51C41DC4382878280AA8503A58191BA
:1030E00011C1EDB78280EFE22FB1EF900120BD4713
:1030F00063F4A700EF90611FEF908143BD4763F435
:10310000A700EF90E14283D501B003D521B0EF00D5
:1031100010656FE0AFB0EFE22FAE93962500AA8561
:103120002D4597100020E780C09901456FE00FAF53
:10313000EFE28FAC41112A8493962500B284AA85D0
:103140000146254536C697100020E7808097B24695
:103150002686A285294597100020E78080960145A4
:1031600041016FE0AFABEFE28FA73714004083441B
:103170007405034AB4058349840503499405EF9017
:10318000A1128347A40593F4F40F137AFA0F93E77F
:103190001700230DF40493F9F90F1379F90FB717FA
:1031A000004003C7A705058B6DFF03D5C705A38D99
:1031B0004705238C3705A38C2705A38B97046FE065
:1031C0004FA5EFE26FA393970501C1872E8463D9C2
:1031D0000700F92B11C1852B2165218D6FE00FA40C
:1031E00093F7150013C51500F5FB8964B3F7950037
:1031F0009DC3EF101169EFF01FEF37F602001306C1
:1032000006E0896503C5C191258CEF00702C13156C
:1032100004014181E1B7916433F5950061D1130652
:1032200000649165C5B7EFE28F9BB7F5010037F5F4
:1032300001005D714946938505C51305C505EF007D
:10324000B01011E101A037F400E0F9575CC4B7E415
:1032500000E0FD571CC805699387041023A02701CF
:103260009309701023203401BC404147B8C0138734
:10327000041823202701BCC0010001001306C0036D
:1032800081454808EF003006B75700209387473A3A
:103290003ECA896793870780231CF100ED47A3018D
:1032A000F1029307A0102312F102D1472303F10288
:1032B000A167938707E03ECE8D6793876711BEC4F1
:1032C0008D6793870713BEC685472304F102B54770
:1032D0002308F102F5679387078D3EDA8D679387A0
:1032E00067163EDEB7F507008D679387670E814648
:1032F0007000E1051945BEC097000020E780607CA2
:1033000019466C001305A102EFE0AF89D24789C7C7
:103310008357810163F3270101A04808EF00F059AA
:1033200011C101A0BD679387F7A55CC423280400E1
:1033300023A024112320340161616FE08F8DEFE21F
:10334000AF8B0D651305251CEF00B053238EA190A4
:10335000212803C5C19137F60200130606E08965EE
:10336000EF0010176FE08F8BEFE20F8937140040EA
:10337000930670052300D404130780FA2300E404A5
:103380008347F40293F7A70FA307F4022300D404A2
:103390002300E4048347F40293E72700A307F40221
:1033A000EFF07FD4814701478146054685452300DC
:1033B00004041305407EEF9041380145EF00307D55
:1033C0006FE0CF85EFE24F833285D0418345160011
:1033D000034806000D66A205B3E505011398050133
:1033E000135808419308A6A263C70803130626A230
:1033F0006357060375761306C65DB295C205C18193
:1034000019466362B60237F60100130646C68A05FE
:10341000B29590410286130606A5630CC81023904E
:103420000600A94525A01D469D456361E60221468B
:10343000198E63F3C7003E862390C60093854192A0
:10344000BA9597100020E780A09C81452E856FD00B
:10345000FFFC2D469D45E36BE6FE3146198E63F376
:10346000C7003E86B7F501002390C600938505CFBF
:10347000C1BF31469D45E36BE6FC3546198E63F3CB
:10348000C7003E86B7F501002390C600938505CEA0
:1034900045BF41469D45E36BE6FA4546198E63F309
:1034A000C7003E86B7F501002390C6009385C5CCC2
:1034B00041BF41469D45E36BE6F84546198E63F3EF
:1034C000C7003E86B7F501002390C600938585CBE3
:1034D00085BF41469D45E36BE6F64546198E63F38D
:1034E000C7003E86B7F501002390C600938545CA04
:1034F00081BF41469D45E36BE6F44546198E63F373
:10350000C7003E86B7F501002390C600938505C924
:1035100005BF35469D45E36BE6F23946198E63F3E8
:10352000C7003E86B7F501002390C600938505C805
:1035300001BF19469D45E36BE6F03386E54063F332
:10354000C7003E862390C60093850181D5BDB7563E
:10355000002037550020938646B14146CD451305DE
:1035600005B26F60A06882809387C19303D707007C
:103570006318A7002391B7002392C7002393D700B5
:103580008280EFD27FE793970501C1872E8463DBAA
:10359000070003C50182292C11C175222165218DE7
:1035A0006FD0DFE793F7150091CF03C5018237563F
:1035B0000020130606C59385C192EF60413B134579
:1035C0001400F9BF93F7850085C383C7018203D533
:1035D000C193130740068146130640069945EF60E4
:1035E0006132134584006DBF13F5450055D903D5ED
:1035F000C193EF60710A03C501820566130606C810
:103600009145F9251345440061BFEFD2FFDE41111A
:103610002A84EFF09FAC1387C1930356440083576D
:1036200007006317F602C167F91723AEF19203C5CD
:103630000182914523220700EF0090008547130681
:10364000F100854513055030A307F100EF60415E9E
:1036500041016FD0BFDCEFD23FDAAA870D4741119D
:103660002E856368F7000547636EF70241016FD04E
:10367000FFDA1147E39CE7FE03C725009547E317F0
:10368000F7FE2EC6EFF0DFA39387C19383D6070022
:10369000416779173245638FE6000355A500EF6057
:1036A000E17FE9B703C725009947E311F7FCEFF085
:1036B000DFF56DBF0357A50009662390E7000357A8
:1036C000E50013060690A1452391E7000357050185
:1036D0002392E7000357250103C501822393E700E6
:1036E000C52B03C501820566130606C89145CD2387
:1036F000B5BFEFD27FD00D6513052558EF007018C8
:10370000416779172380A18223AEE192138541930B
:103710009387C19323A20700EF40412C03C5018288
:10372000854551216FD09FCF23AC05FE1C4191E709
:10373000010001000CC18280BA8703A787FF6DFFDB
:1037400023ACB7FE82801DC18346E5FF1307F00F4F
:103750009147639EE600411106C697100020E7805E
:10376000600CB24081473E854101828095473E858D
:10377000828001E9014582800145B2402244410135
:103780008280411122C42A84210542059305D00478
:10379000418106C697100020E78020FF71DDFD57AC
:1037A00023200500231285002303F5002105F1B72E
:1037B000138741941C43411122C426C24AC006C645
:1037C00001440149BA8489E7A1659D2D0DC401A872
:1037D00003C7E7FF6318A7021DC8A165E926984043
:1037E000832784FF6317E40223A2F194FD57232C5F
:1037F00004FE230FF4FE2285B24022449244024983
:103800004101828011E03E8983A787FF6DBF3E841E
:10381000E5BF232CF9FED9BFA1CD411122C406C6B4
:103820002A849737002083C7F73B2E856369F4000D
:10383000EFF07FF10D45B24022444101828083A721
:1038400085FF99E703C7E5FF9307F00F6306F700CD
:10385000EFF07FEF1545C5B7238F85FE13854194A3
:10386000EFF09FEC22852244B240A165410125AED4
:103870001545828023A2019482809387C1959C4341
:1038800099E33E85828003D727006316B70003C7FC
:103890000700E308A7FEDC47E5B741119397050150
:1038A0004AC006C622C426C2C1872E8963D0070239
:1038B000EFF01FF019C1EFF01FE921653345A900B2
:1038C000B24022449244024941018280AA860145C5
:1038D000E5D901443D47B3578940858B95CB938704
:1038E00001958443BD4791E28147A2978E07054524
:1038F000BE9433158500131405019C40C8404180D7
:10390000829723A0040023A20400334524014DBF65
:103910000504E312E4FC0144CDBF973700209387F0
:10392000A7289C53411122C406C61384418295C71F
:10393000829723A2A1820840B74703009387D73F0D
:103940003305F502B7A72600938737ECB24022442F
:103950003E9523A2A1824101828097370020938760
:10396000672818409C4BBA9723A2F182E9B7938746
:10397000819490439736002083C6D626814713F75B
:10398000F70F6360D70A173700200347173A9147AC
:1039900063E0E70A9737002083C7C73D918BC9EBE7
:1039A0000111680006CE22CC26CAEFC00033FD56B6
:1039B000630FD50C32479737002083C7172063F376
:1039C000E70C173700201307E7214047173700207F
:1039D0000347C71E6305D406058B21CF5147330427
:1039E000E40263F1870A97000020E7808067B2470E
:1039F0006373F400A287173700200347171C998FC1
:103A00003E95973700209387271A8387470163CD18
:103A10000702B707C0A86369F502B70740573E958C
:103A200025A085071397170032970357E7FF21DB7F
:103A30008280130790023304E40205805DB76207B9
:103A40006187635707001D8D19E93705C0A801A8D4
:103A5000E37BF5FE3707C0A8B307F7403E959737DD
:103A6000002093876714DC53829709ED9737002075
:103A70009387472B9C4F99C7EF104116EF10417465
:103A8000EF10210AF2406244D244056182809737E8
:103A9000002093872715DC47E386A7FE1737002011
:103AA0001307871083464701BA84858A9DC651440F
:103AB000338487029737002083C73710E3F487FCED
:103AC00097000020E780E0599737002083C7F70E62
:103AD0001D8C2295838744011DBF130490023384FB
:103AE00087020580C1BF2A9609E582800505A30FDC
:103AF000B5FEE31DC5FED5BF81473307F5000307BB
:103B0000070019E33E8582808507C5BF01112E8617
:103B100026CAAA84131506019305F004418122CC1C
:103B200006CE32C697100020E78020C62A8419C529
:103B30003246A68597000020E780802D2285F2403E
:103B40006244D2440561828081476314F6000545D2
:103B500082803307F5008507B386F5000347070029
:103B600083C6F6FFE383E6FE014582809307F6FFF6
:103B7000BE952A966313C5008280FD1583C7150084
:103B80000505A30FF5FEFDB7814711E901458280C8
:103B90003307F50003470700E31AB7FE8507E3196B
:103BA000F6FE054582809737002083C7B703637F01
:103BB000F500138781949317150008433E958357AA
:103BC0000500DD8D2310B500014582800D45828002
:103BD000FD57011117370020232CF7009387C1955B
:103BE00022CC80434EC6973900209389E9FB26CA30
:103BF0004AC852C456C206CE5AC02A8981444E8A47
:103C0000973A0020938A0AFE184481476374E900BA
:103C1000B307274103A749021CC409CB03A7CA0065
:103C200063F6E700173700202324F7FCB1E783553C
:103C3000240085ED5C44B1E823AEF194032BC4006D
:103C4000228597100020E780E0BD5A8455FC832729
:103C50004A0295CF6244F240D2444249B249224AD4
:103C6000924A024B05616FF09FD003450400EFF0CC
:103C70009FF35C4081CB1CC483572400C5DFA28422
:103C80004044E9B71C44DDD7C5BFDCC445BFF240A2
:103C90006244D2444249B249224A924A024B0561E7
:103CA00082809737002083C7F7F36371F50213878B
:103CB000819493171500084393C5F5FF3E958357EC
:103CC0000500FD8D2310B500014582800D458280E1
:103CD0009737002083C717F16364F50001458280A0
:103CE000411122C426C24AC006C62A842E89B28443
:103CF000EFF0BFB801C504C505452DA0936504F0DC
:103D0000C205C181414597100020E78000A80DE160
:103D100097370020938747E99C5B81C7A2851145AF
:103D200082970145B2402244924402494101828077
:103D30009387C1959C438DE323AEA19485472326A9
:103D4000050004C52311250123008500A300F5000B
:103D50002322050055B7BA87D84775FFC8C7F9BFF2
:103D60004DC539715AD0138B019522DC26DA4AD819
:103D70004ED652D45ECE66CA6AC86EC606DE56D22B
:103D800062CC3689328AAE89AA8401445A8DB94DF3
:103D9000854BF94C03270B00131C3400937AF40F66
:103DA00062971C43B1EF13B5FA0013451500B397A2
:103DB0008B0063F65D01930714FFB397FB009395A7
:103DC0000701C1815286EFF0BFF01DC983270D00A6
:103DD0000145E29784C323A237016304090023004D
:103DE0005901F2506254D2544259B259225A925A4D
:103DF000025BF24B624CD24C424DB24D216182804B
:103E00000504E31994F92145E9BF09458280411170
:103E100022C426C24AC006C6AA842E893284EFF084
:103E20003FEBCA852685EFF05FA509C940C1014572
:103E3000B240224492440249410182802145CDBFD3
:103E4000411122C426C24AC006C6AA842E89EFF0B8
:103E5000DFA22A8419C1231105009737002083C7E8
:103E600067D863949700239A2195CA852685EFF039
:103E70005FE3014511E01945B240224492440249F2
:103E8000410182807547636CA70413870195144331
:103E9000411126C293143500A696944222C406C648
:103EA000AA873A8409459DC613B5F70039471345DB
:103EB00015006373F700C5178545B395F500C20576
:103EC000C181EFF0FFF71C400145A69723A0070032
:103ED00023A20700B2402244924441018280094556
:103EE0008280411106C6EFF05F9909C50845B240CE
:103EF000410182800145E5BFF54763EFA704938741
:103F000001959C4313173500BA979843894731C7E9
:103F1000011126CA06CE9334F50022CCB94793C4CA
:103F2000140063F3A700451505443314A4004204AC
:103F300041802EC62685A285EFF0BFFA894732461A
:103F400011C5A2852685EFF0BFD88147F2406244B3
:103F5000D2443E850561828089473E8582802396D2
:103F6000A1942397B1948280411106C623ACA194F9
:103F70000295B2409737002023A0A7C80145410110
:103F80008280994763E9B7008A05973700209387B5
:103F9000A7C7BE9588C18280411106C6EF505179EE
:103FA0007146814517350020130505C6EFF0BFB3F4
:103FB000130640028145173500201305A5C2EFF016
:103FC0009FB223AE019423AC01949737002083C79E
:103FD00067BF13D527008D8B3E958D473305F502BE
:103FE0009305101035051375F50F97370020238CB6
:103FF000A7BE99473305F5021305050F970000206A
:10400000E780A07823A8A19435C9994717360020E6
:10401000034666BD3306F60281451306060FEFF030
:104020009FAC938701959C439387070F23A0F1963C
:1040300017370020034727BB0A07BA9723A4F19438
:10404000EFF05F83652693870196984397370020AA
:1040500083C757B993962700BA9617060000130630
:10406000068490C293862700850793F7F70F8A0787
:1040700097350020A388D5B6BA9790C3B2404101C6
:1040800082809737002083C7F7B517370020034792
:1040900087B563F1E70213870196184393861700EB
:1040A00017360020A300D6B493962700369708C38E
:1040B0003E8582809307F00FE5BF1C416382071A9B
:1040C00041777D8FB70600208947631CD7180357B7
:1040D000450063080718411122C419462A84930534
:1040E000F00F590506C6EFF03FAA05478D47630458
:1040F000E5161C4481CB58589947630E0714185C89
:10410000630B07141306C003814517350020130500
:10411000A5A9EFF05F9D1306C003A2851735002007
:10412000130585A897000020E78080CE97370020F0
:1041300083D747A897360020938606A799E7930769
:104140000010173700202317F7A69737002083C7E2
:1041500087A691E7854717370020230EF7A49737E6
:10416000002083C757A591E7ED4717370020A30428
:10417000F7A49737002083C727A491E795471737FF
:104180000020230BF7A29737002083C7F7A291E7FF
:10419000854717370020A301F7A29737002083C770
:1041A000F7A199E783C7060117370020A308F7A0F6
:1041B0009737002083C767A091E7D14717370020C2
:1041C000230DF79E9737002083C7E79F95E71737A2
:1041D00000200347A79E1316870161869307C0023C
:1041E000634806009377170093B717009387D702A9
:1041F000173700202309F79C9737002083C7F79BC8
:1042000095E7173700200347679B131687016186E0
:104210009307C002634806009377170093B717000F
:104220009387D70217370020A309F7988347D40153
:1042300091E7894717370020A306F7989C5691C746
:104240008297973700202392A79AEFF0FFD4FD576B
:10425000A386F1AC8147B24022443E854101828071
:1042600089473E858280011122CC06CE2A842EC643
:10427000EFF0AFEAB245F240818D33A5A502229559
:1042800062441375F50F05618280011122CC06CEC0
:104290002A842EC6EFF06FE8B245F240818D33A537
:1042A000A502229562444205418105618280011187
:1042B00022CC06CE2A842EC6EFF02FE6B245F2407D
:1042C000818D33B5A50222956244056182809737BE
:1042D00000209387678D985725C3411122C426C2B9
:1042E00006C6BE84029717370020035707902A841A
:1042F00041C7BA876373A700AA87C207C183BA867A
:104300006373E400A286C206C182958F514763554C
:10431000F706DC5491C3829785471737002023079F
:10432000F7A0EF001156973700202390878CB240FA
:1043300022449244410182809737002083C7079F1F
:104340009DE7973700209387E79D83C797008507F0
:1043500093F7F70F17370020A30AF79CA18B9DC78F
:104360008547173700202313F79C6F007157973745
:104370000020A38D079AD5BF9737002083C7079BDE
:10438000DDD72244B24092444101C5B782809737BD
:10439000002093876781D857011122CC06CE3E8436
:1043A00001C72AC60297324511CD23A2A19617054F
:1043B0000020130585CCEFF03FBBF240624401457D
:1043C000056182808307440163DD07009737002081
:1043D00023A60782970700209387C7C423A2F196DC
:1043E000F9B7970700209387C7C7CDBF011122CC2B
:1043F000172400201304447B084406CE26CA4AC86A
:1044000001E90545F2406244D24442490561828097
:104410005C58E5DB185C75D77000854582971844B9
:10442000B247E300F7FE9305E0041725002003558B
:10443000657897000020E78040351727002023216A
:10444000A77C61D1172600200356C6769305F00F8E
:10445000EFF06FE98144172900201309A978972705
:10446000002083C747750326C90163C1F402328562
:1044700097000020E780003B01459727002023A1FB
:1044800007789727002023AF0776ADBF9725002038
:1044900083D54572B38795020844185C89818504E9
:1044A0003E9508C2029765BF411122C4172400201F
:1044B0001304846F1C4426C206C64AC097240020F9
:1044C0009384447291EBC84C35E9B2402244924443
:1044D00002490145410182801C5CF5D7DC4C99EF13
:1044E0009305E004172500200355C56C97000020B4
:1044F000E780A0299727002023A4A770C84C61D586
:10450000172600200356066B9305F00FEFF0AFDD82
:1045100001499727002083C7076AD04CE355F9FA71
:104520009725002083D50569338525031C4489819F
:1045300005093E951C5C08C28297E1BF97000020E8
:10454000E780402E9727002023AC076A972700209A
:1045500023AA076A9DBF011156C2972A0020938A99
:10456000AA6483A78A0022CC4AC84EC606CE26CAB1
:1045700052C45AC0AA892E8432896385072203A7B0
:104580004A03630707147D476366A7149724002036
:104590009384446503AAC40163170A0A9565938549
:1045A00015E0172500200355E56097000020E780FF
:1045B000C01D9727002023A5A7642A86630A05103B
:1045C00083A74A0303A58A009725002083D5855E2B
:1045D0008981829783A78A0003AAC4011727002034
:1045E0002322F7628947639CF908C1476312F40EDE
:1045F0009725002083D5055C938505FC9147B3C5BD
:10460000F5028A05D29503C705009307A005631D2F
:10461000F70A83C715006399370B4A8522869105EF
:1046200097F0FF1FE780C07EDC4C528563934715EF
:104630000145F2406244D2444249B249224A924A78
:10464000024B056182809850E38EE7F8956593856B
:1046500025E0172500200355E55597000020E78049
:10466000C0122A8A35C52A8683A74A0303A58A0071
:104670009725002083D5055489818297A5B78D475A
:10468000639DF900C1476315F4049725002083D585
:104690006552938545FDF199B5B79147639AF90045
:1046A000631834039725002083D5C550A115E5B7BD
:1046B000C147639FF900A14763EC8700972500205D
:1046C00083D5454FC115C1BFDC4C52856397470D5B
:1046D000294585B71307F006568B6361A70A130AAD
:1046E00005FE1947334AEA02172700200357874C73
:1046F000972A0020938A0A4F330AEA023E9A83A738
:104700000A026395470183A4CA019DE49305E0046E
:10471000172500200355054A97000020E780E00692
:10472000AA845DD583274B039725002083D5854830
:104730002A8689815285829791451307A005898130
:1047400093972500A69783C607006393E60483C664
:104750001700639C360385058A052286A6954A853F
:1047600097F0FF1FE780C06A83A7CA01E38297EC36
:10477000268597000020E780E00A5DBD1307E0076B
:10478000E368A7F4130A05F985B783D5270045BF69
:1047900083A7CA01E38E97F2268597000020E78061
:1047A00060083DB7972700209387C743CC4F8DD132
:1047B00091479306A0058983139727002E970346F8
:1047C0000700E317D6F003461700631C3601850780
:1047D0008A072286BE954A8597F0FF1FE7804063CF
:1047E00081BD83572700C1BF972700209387C73B10
:1047F000984739C79C5FA9C705476313E504411172
:1048000022C4172400201304E43D504C06C60DC6F4
:1048100008509725002083D5E53989818297484C37
:1048200097000020E78000009727002023AA073C7C
:104830009727002023A8073CB240224441018280F0
:104840008280011117270020130707364EC68329DF
:10485000870022CC26CA4AC806CE52C456C2AA84B1
:104860002E843289638A09201C5FBA8A99EB294514
:10487000F2406244D2444249B249224A924A056116
:1048800082805C5BEDD7FD4763E9A70E9729002086
:104890009389493583A7C901B1CB03A58A0083A7B2
:1048A00009026395A70689476393F408C147E3109B
:1048B000F4FC172500200355E52F9147130505FC4F
:1048C0003345F5029317250003A5C9012286CA8541
:1048D0003E959307A0052300F500A3009500110560
:1048E00097F0FF1FE780C052014559B79305E004D8
:1048F000172500200355052C97000020E780E0E8ED
:104900009727002023AEA72E49F995B783A74A031E
:1049100003A6C9019725002083D5C52989818297DF
:1049200083A78A0017270020232EF72CADBF8D47C1
:10493000639EF400C147E31CF4F2172500200355E1
:104940006527130545FD9377C5FFBDBF9147639A62
:10495000F400E31E94F0172500200355A52521152A
:10496000DDB7C147E395F4F0A147E3E287F01725EF
:104970000020035525244115F9B79307F00663EA93
:10498000A706930705FE1947B3C7E70217270020BC
:1049900003574722172A0020130ACA24B387E702C5
:1049A000BE998327CA01A9CF83270A02639A3707D2
:1049B0000325CA0191461308A005FD5593D726008B
:1049C000C207C183139727002A9703460700631D78
:1049D0000607834817000356270063959806B30619
:1049E000D64063CF860485078A072286CA853E950E
:1049F000C5BD9307E007E3ECA7E6930705F979B790
:104A00009305E004172500200355C51A97000020E0
:104A1000E780A0D79727002023A4A71E51F581BDCA
:104A200083A74A030326CA019725002083D585184A
:104A300089814E8582979727002023A5371D8DBF3A
:104A4000A300B700B2869DBFB3858600172600205D
:104A5000035646169105130606FCE3FAC5E0130655
:104A600034001376C60F1106B29623000701A30087
:104A700097002311D70085BF9727002093878716BB
:104A8000D44FBE89A1C203A5C90191461308A00550
:104A9000FD5593D72600C207C183139727002A9795
:104AA00003460700631606058348170003562700D0
:104AB00063989800B306D640E3D786F2A300B70008
:104AC000B286C1BF8357C700172500200345A50E36
:104AD0009305E0043305F50242054181970000206B
:104AE000E780A0CA9727002023ACA71049FD41B357
:104AF000172600200356060C9725002083C5A50B1A
:104B0000B385C502338686001106E3E2C5D681BFB0
:104B100001458280011106CE2EC6EF70003601C914
:104B2000B245F2400355250005616FA0C064F24014
:104B3000494505618280A38801982388019823ACA8
:104B4000019623AE019623A0019823A2019823AADF
:104B5000019623A80196972700209387A70C370773
:104B6000B40098C33747A000D8C337071000930696
:104B7000070A94C7B7065000C106D4C793060705B5
:104B80004107D8CB3707D007410798CF37078403B1
:104B900098D337C70700130707B8D8D3416794CB1A
:104BA00093060701130717F8D8D7370781FF98DB5B
:104BB0007D5723AE070094D7239AE7028280011124
:104BC00026CAAA84214522CC06CE2E8432C636C4FB
:104BD0003AC2EFE01FBA1DC9A246124732469307F8
:104BE00000FD2300F5009947A30095002301F5007F
:104BF0002303D500A303E5002312C500AA8522855F
:104C00006244F240D24405616FE01FC1F240624449
:104C1000D2440561828023ACA196828023AEA19606
:104C2000828023A0A198828023A2A1988280011172
:104C300022CC4AC806CE26CA2A890144B304890078
:104C40006368B400F2406244D24442490561828004
:104C50002EC6EFE09FCC93170501C183A183B24517
:104C60002380F4009307140093F7F70F850463F98A
:104C7000B700CA9709042380A7001374F40F7DBFFF
:104C80003E847DBFC16717250020035585FDFD17B4
:104C90006302F502411103C6C1A19385819806C63E
:104CA000EF60F07EB240FD5717270020231BF7FA74
:104CB00041018280828009C925151375F50F1335CE
:104CC000850E1345150082800145828023800500F2
:104CD000F94763E3C708797122D426D24ECE56CA6B
:104CE0005AC806D64AD052CC5EC63684B289AE8A3D
:104CF0002A8B814463F03407B307940003CA07008A
:104D0000138914001379F90F63060A04B3072A0103
:104D100063C2F904B307240183CB07005E85EFF07B
:104D20009FF90DC99307FAFF2380FA0063906B0384
:104D3000130519002295B250225492540259F24997
:104D4000624AD24A424BB24B45618280D29493F47C
:104D5000F40F4DB70145C5B701458280411126C208
:104D6000AE8422C49727002023A4C7F097270020F1
:104D700023AEB7EE9727002023A8A7EE2A8441464A
:104D80009305F00F26854AC006C60549EFE0DFDF30
:104D90006310250597270020938747EC884BC14572
:104DA000EFF0FFE841469305F00F2285EFE0DFDDED
:104DB000854463179502224497270020938707EACA
:104DC000B24092440249C847C14541016FF03FE6F5
:104DD000414681452685EFE03FDBE31525FD5DBFBC
:104DE000414681452285EFE03FDAE30695FCB2407B
:104DF00022449244024941018280411122C426C2C8
:104E00002E84AA841306000281451725002013056D
:104E1000E5E406C6EFE03FCD97270020A38197E4A5
:104E2000A38F81A0EFA0A036854719C181474945CE
:104E3000B2402244172700202302F7E292444101A6
:104E40008280814781CD19C98547631BF50083C7DF
:104E5000550093E707FCA382F50085473E858280D5
:104E600089476317F50083C7550093F7F703E5B744
:104E70000D478547E314E5FE03C755001377F70395
:104E800013670704A382E500D1BF81478DC105C127
:104E900003C755009306000C85471377070C63087A
:104EA000D700930600048D476303D70089473E85EA
:104EB0008280411122C4005D06C626C21DC8AA8494
:104EC000085009C597000020E780C095485009C5E3
:104ED00097000020E7800095085409C5970000203E
:104EE000E7804094228597000020E780A09323ACC0
:104EF0000402B240224492444101828009ED972786
:104F0000002083C7C7D5172500201305A5D681CB60
:104F1000138581968280172500201305A5D58280F0
:104F2000172500200345A5D382809727002093876B
:104F3000E7D2C847828097270020938727D2884BE3
:104F4000828097270020938767D1DC4B884382803B
:104F500097270020938787D0D84B1C4385071CC315
:104F6000172500200345B5CF9307F00F6305F50023
:104F700091656FE05FC38280011122CC06CE2E8442
:104F800032C6EF60D07E9147B245631FF50093872C
:104F900041989C438DC303A30700630E0300228541
:104FA0006244F240056102839387C1979C4381C7A5
:104FB00003A34700DDB7F2406244054505618280E6
:104FC000011122CC2A840355450006CE26CA4AC8C0
:104FD0004EC6EF60B05A3DC52A8983440500834917
:104FE000C500EFF01FED4A85EF70F0510355440006
:104FF000EF60707383C70199B1CB6399970483C540
:1050000011992685EFF01FB119E123880198035506
:105010004400EF60D0759147631FF50003574400CB
:105020009727002083D7E7C36317F700FD5717279B
:1050300000202318F7C2F2406244D2444249B249E8
:105040000561828081499304F00F6DB79307F00FDB
:10505000E38FF4FA834664000356440003452400BA
:105060004E87A685EFF0BFB55DB779715EC6AA8B96
:105070002E8552CC56CA5AC806D622D426D24AD039
:105080004ECEAE8A328B368AEF60504F75C1045DCA
:105090002A89F9CC9C50614599C3130540039C545F
:1050A00081C751054205418163050A00710542052A
:1050B0004181DC5081C7590542054181EFE06FEB2A
:1050C0002A845DC561468145EFE0FFA19729002054
:1050D00083C949B86394090083490900930700FD17
:1050E0002300F400A947A30074012301F400230363
:1050F00064018C50231254011305840191C908C422
:105100007146930A440397F0FF1FE78060D05685ED
:105110008C5491C948C45146930A450197F0FF1F2A
:10512000E78000CF5685630C0A0008C87146D28517
:10513000930AC50197F0FF1FE78080CD5685CC50BC
:1051400099C548C8594697F0FF1FE78060CCA285F3
:105150004E85EFE06FEC2254B2509254F249624A0D
:10516000D24A424BB24B4A85025945616FF07FD417
:10517000B250225492540259F249624AD24A424BE6
:10518000B24B4561828001114EC6AA892E854AC85C
:1051900006CE22CC26CA2E89EF60503E31C5972418
:1051A000002083C424AB99E0834405001945EFE057
:1051B0004FDC2A8415C981451946EFE0DF92930739
:1051C00000FD2300F400B947A30034012301F400DB
:1051D00023122401A2856244F2404249B249268545
:1051E000D24405616FE04FE3F2406244D244424949
:1051F000B2490561828039715ECEAA8B2E8526DA8E
:105200004ED652D456D25AD006DE22DC4AD8AE84CC
:10521000328BB68A3A8ABE8942C6EF60303631C9CF
:105220002A894145EFE0EFD42A8421C541468145D2
:10523000EFE07F8B172500200345C5A119E1034549
:105240000900930700FD2300F400BD472301F4008B
:10525000B247A30074012312940023046401A30441
:10526000540123054401A30534015CC4A285EFE089
:10527000AFDAF2506254D2544259B259225A925A79
:10528000025BF24B21618280797126D2AA84394572
:105290004AD04ECE06D622D42EC6B2893689EFE049
:1052A0004FCD21C1B2459307000D2310F500B14742
:1052B0002A842312B5002301F500CE85190519466D
:1052C00097F0FF1FE780C0B423062401A285225473
:1052D000B2500259F24913F5F40F925445616FE050
:1052E000AFD3B250225492540259F24945618280A0
:1052F000172700200347B7969307F00F630DF706B3
:10530000411126C2AA84394522C406C64AC0EFE02C
:105310004FC62A8439C9930700FD2300F500A30076
:10532000950023010500972500209385A5940D0580
:10533000194697F0FF1FE780A0AD17290020130939
:10534000E99183578900A2851725002003453591EF
:105350002315F400834719002306F4002244B240C9
:105360009244024941016FE02FCBB2402244924463
:105370000249410182808280011156C2AA8A3145C8
:1053800026CA4AC84EC652C406CE22CCAE84328A41
:10539000B6893A89EFE0EFBD29C92A842685EF60F6
:1053A000F01D1DCD03450500930700FD2300F4000B
:1053B0009D47A30054012301F400231294002313FA
:1053C00044012314340123152401A2856244F240D0
:1053D000D2444249B249224A924A05616FE0CFC3A2
:1053E000172500200345B587C1B7F2406244D24477
:1053F0004249B249224A924A05618280397162CC9F
:105400002A8C594526DA4AD84ED652D456D25AD08A
:105410005ECE06DE22DCAE8432C636C4BA8B3E8B4C
:10542000C28A468A8359010403494104EFE06FB4FC
:1054300035C53246930700FDA2462300F500954787
:10544000A301C500A30085012301F5002A841946A4
:105450001105A9C2B68597F0FF1FE780609B230660
:105460006401230A2401231574012317540123180E
:10547000440123193401A2856254F2504259B259B1
:10548000225A925A025BF24B624C2685D254216119
:105490006FE08FB88145EFE00FE5D1B7F25062546D
:1054A000D2544259B259225A925A025BF24B624C80
:1054B000216182809717002083C7677A8DCB4111C5
:1054C000AA8519461385819606C697F0FF1FE780C7
:1054D0002094938581961715002003454578EFF0B9
:1054E0005F96B2401385819641016F90104B014544
:1054F000828017170020034797769307F00F630504
:10550000F708411126C2AA84294522C406C6EFE045
:105510004FA62A8429C1930700FD2300F500A14767
:105520002301F500A30095009717002093870773C8
:1055300083C72700938581961105A30FF5FE1946B1
:1055400097F0FF1FE780C08CA28517150020034548
:105550001571EFE06FAC17170020034747708D47B8
:10556000631FF700938701989C4391CB03A38700A7
:10557000630703002244B240924441010283B240D7
:105580002244924441018280171700200347276D6F
:105590008D47631AF700938701989C4389C703A33B
:1055A0008700E31D03FC8280797122D406D626D2BF
:1055B0004AD04ECE52CC094445C92A89035505002C
:1055C0002E8A5144EF60807BAA8459CD83C7F1A114
:1055D000FD1793F7F70F054749446377F70803472B
:1055E000C500A1476314F70063100A089C5C45449A
:1055F000A5EF9165938545711305C00297F0FF1FD4
:10560000E780A01888DCAA894D4439CD1306C00272
:105610008145EFE04FCD83570900938649003685D9
:105620002391F90071469305490036C697E0FF1FA4
:10563000E780007E89472380F90003C5C400B24695
:1056400003560900611583C5C1A113351500EF90FC
:10565000A0092A8463060A00D2852685EF70D0153A
:1056600001C42685EFF0FF842285B2502254925463
:105670000259F249624A4561828083C7F1A1FD1750
:1056800093F7F70F05476378F708894751C601116B
:1056900022CC26CA4AC84EC652C406CEAA89368A29
:1056A000B2842E89EF60806D2A84D14729C948557C
:1056B00009C597F0FF1FE780E016F1452685EFE06A
:1056C000EFC448D4CD4705CD8346C4002147814768
:1056D000639FE600630D0A000347A5010356050119
:1056E00093062501AA854E85EF70E004AA8703473B
:1056F0004400630F0900136767002302E400F240CF
:105700006244D2444249B249224A3E8505618280C0
:1057100013674700DDB7C9473E858280E54763EBE5
:10572000A700971700209387E74F06053E9503557E
:105730000500828041657D158280011122CC2A847A
:105740002E8526CA06CEAE84EF6040630DCDB747E6
:105750000F009387F723094563E2870281450A8595
:105760004146EFE04FB8A685231081000A854180AD
:1057700023018100A3010100EF807059F2406244CF
:10578000D244056182804945D5BFA38EA1A0828005
:105790006F80506E797152CC2A8A328522D426D2FB
:1057A0004AD04ECE56CA5AC85EC606D662C4AE8B22
:1057B000B28A368BBA843E89C2894684EF60005C27
:1057C00015C92A8C63140A0213774B0083474500DE
:1057D00015CF93E727012302FC008DEC631C09021F
:1057E000639A090205E8ED9B2302FC00832B8C03DE
:1057F000639F0B06B250225492540259F249624AF6
:10580000D24A424BB24B224C45618280F59B93E7D2
:105810000701D1B793E747002302FC0001CC1C48E5
:105820004146A2852324FC0213058C0197E0FF1F4B
:10583000E780005E63910B02D5D80325CC0209C531
:1058400097F0FF1FE78000FEF1452685EFE00FACE3
:105850002326AC0261BFE30B09F80325CC0209C57E
:1058600097F0FF1FE78000FCF1454A85C5B79DC44E
:1058700083A70B0299EB916593853571714597F07C
:10588000FF1FE78080F023A0AB0203A50B0219C520
:105890007146A68597E0FF1FE7808057638809025D
:1058A00083A74B0299EB916593852571594597F034
:1058B000FF1FE78080ED23A2AB0203A54B0219C5B1
:1058C0005946CE8597E0FF1FE78080541DC483A70B
:1058D0008B0299EB916593851571514597F0FF1FE8
:1058E000E780A0EA23A4AB0203A58B0219C55146A9
:1058F000A28597E0FF1FE780A0512254B250925436
:10590000F249B24B224CCA865A860259424BD6857E
:105910005285D24A624A45616FF02FF5011126CABD
:1059200052C406CE22CC4AC84EC62A8AAE84EF6044
:10593000E04425C5AA893945EFD0BFE32A8431CD9B
:1059400017190020034909316314090003C909002C
:105950009307000D2310F400AD472301F400938555
:10596000690013053400194697E0FF1FE780404A9D
:1059700093F71400858085882306F400A30694001D
:1059800023154401A2856244F240D244B249224A1E
:105990004A85424905616FD03FE8F2406244D244F3
:1059A0004249B249224A0561828093870197884320
:1059B00001CD411106C697F0FF1FE780A0E6B24077
:1059C00023A80196410182808280011106CE22CC5B
:1059D00026CA4AC82EC6EF60603A39CDB2451719BB
:1059E000002003492927AA840CD563140900034920
:1059F00005004145EFD0FFD72A841DCD9307000D48
:105A00002310F500A5472301F50083C754009385B3
:105A100064001105A30FF5FE194697E0FF1FE7800C
:105A2000203F9C54A285F2405CC46244D2444A8523
:105A3000424905616FD05FDEF2406244D244424980
:105A400005618280797122D406D62A842EC6EF6041
:105A5000E0320DCD8346C5001147AA8749456393BF
:105A6000E6029C5FB24599C383C567010808EF70E1
:105A7000A05D97860000938626E61008894522855A
:105A8000EF603050B2502254456182805145DDBFF5
:105A900083C7F1A1FD1793F7F70F0547637AF70462
:105AA000894721CA411122C426C24AC006C6B2840F
:105AB0002E89EF60A02C2A84D14705C56308090010
:105AC0008347450093E727002302F5004146A6855A
:105AD0001305840197E0FF1FE78080339C481CD4A6
